:03000000021B2EB2
:0C1B2E00787FE4F6D8FD758123021B755A
:0C000300000000000000000000000000F1
:0B230F00EF1FAC0670011E4C70F622A0
:10002A00AB07AA06EB1BAE0270011A4E60097FAA43
:08003A007E0512230F80ED2268
:1015A100907120E04480F07F057E0012230FE4FF5C
:1015B100FE12002A75A75575AC589071327450F01F
:1015C1009071307403F0907136742FF07F18EF240E
:1015D10066FDE434718D82F583E4F00FEFB433EEF0
:1015E100904011E4935407FF90711CE054F84FF0C0
:1015F100904017E493547FFF90711DE054804FF0A9
:10160100904010E493FF5401C43333335480FE906F
:101611007123E0547F4EF0EFC313543F4440FFA3C6
:10162100E054804FF0904012E493FF540FFE90710C
:1016310046E054F04EF0EFC4540FFF90714FE05468
:10164100F04FF0904013E493543FFF907140E05409
:10165100C04FF0904014E493907126F0904015E44F
:0E16610093907128F0904016E49390712AF057
:01166F002258
:0B231A007379732072657365740A000C
:082340007417F0A37470F02281
:101A970075D9DD1215A175D95590715EE054FEF028
:101AA70075D9BB12213A1222A37BFF7A23791A1226
:101AB70000B978E3E254CFF2E24410F2907194E473
:101AC700F012224E12227F1222191219FA1221F94C
:101AD7001221D812229178D3E254FCF2E24401F2A7
:101AE70090718AE4F0C2949063C61223409063C257
:101AF7001223409063C41223401213E69063A7E0B9
:101B0700FEA3E0FF121CCA9063ABEEF0A3EFF090C8
:101B170063A9E0FEA3E0FF121CCA9063ADEEF0A339
:071B2700EFF012167080D5EB
:0F0B91004263C217704263C417704263C6177085
:101F5B00FFE0FCA3E0FD120AC6E47B707A17F9F8E8
:101F6B001209D39062F4EEF0A3EFF09062F4E0FE6E
:101F7B00A3E0FFC39062F3E09F9062F2E09E229099
:101F8B0062F0E0FEA3E022AC06ECF218EFF2781759
:021F9B00E22240
:1019FA007812E24401F278567407F278277417F2E3
:101A0A0018746FF27833E4F218F27819E24401F2AA
:101A1A007811E24401F27817E24401F27812E244C2
:101A2A0001F27814E24401F27818E24401F278D320
:101A3A00E254CFF2E24410F290718C740AF07812F8
:101A4A00E24402F278577407F278297417F218748C
:101A5A006FF27837E4F218F27819E24402F2781158
:101A6A00E24402F27817E24402F27812E24402F205
:101A7A007814E24402F27818E24402F278C3E2549B
:0D1A8A00F3F2E24404F29071837409F0223B
:092325007833121F924401F222E8
:09232E007837121F924402F222DA
:0C22F7007818E230E0037F01227F002213
:0C2303007818E230E1037F01227F002205
:0D22C3007818E24401F290718C740AF02248
:0E000F0090718CE4F0D2967818E254FEF22242
:0D22D0007818E24402F29071837409F02244
:0E22B500907183E4F0D2857818E254FDF22295
:081CCA009062F0EEF0A3EFF0D0
:101CD200A3EEF0A3EFF09063C2E064177004A3E0F8
:101CE20064706010121F8A9063C2121F5B4005EE7F
:101CF200F0A3EFF09063C4E064177004A3E0647093
:101D02006010121F8A9063C4121F5B4005EEF0A39D
:101D1200EFF09063C6E064177004A3E06470601192
:101D2200121F8AFF9063C6121F5C4005EEF0A3EFFC
:091D3200F09062F2E0FEA3E0FF74
:011D3B002285
:100BA00041637800C11741637A0041637900416372
:100BB000550060206356FFFF0000000000000000A9
:100BC0000000000000000000000000000000000025
:100BD0000000000000004463510000000041634336
:100BE000004163440041634500416346004463475C
:0E0BF0000000000042634B000042634DFFFF17
:101F9D007FEA7E0B9063CEFDFCE0F8A3E0F9A3E0B1
:101FAD00FAA3E0FB22F0E0441EF09071227407F0DA
:101FBD0022E0FF906319E09F906318E09E229063EA
:101FCD0046E0C3941422E0FCA3E0FDA3E0FEA3E0F1
:011FDD0022E1
:10224E0078F2E24403F278E3E244C0F278F2E24438
:09225E000CF278D2E244C0F22235
:10227F0043AA04D2AF786AE24479F27F017E00026A
:02228F00002A23
:101FDE00EF24FE60191460242402702C907123E00B
:101FEE0054D8F0E0441D121FB6759917801A9071DF
:101FFE0023E054F8121FB2759918800C907123E0EB
:0F200E0054D8121FB275990B7869E24448F22238
:1022670090634FE0FEA3E0FF7C007D0C120AC6E4FA
:082277007B0AFAF9F80209D311
:10209800906378E0B4012874FFFFFE906351121F2B
:1020A800A4C3120A655022906351121FD32401FF62
:1020B800E43EFEE43DFDE43CFC906351020A899055
:0A20C8006351120A95000000002287
:1018A8009063CE120A9500000000906378E064020D
:0518B80070030219514C
:1018BD00906343E004F0E0C394645003021951E4D3
:0118CD00F02A
:0F18CE001222679063CE120A89906378E0702C23
:1018DD00121F9DC3120A655008906344E004F08006
:1018ED0005E4906344F0906344E0C3940AE4400738
:0C18FD00F090637804F022906378F022F1
:10190900906378E0640170407F307E75FDFC9063E0
:0A19190051121FA6C3120A65402EEA
:10192300E4121F9D120A655008906345E004F0809D
:1019330005E4906345F0906345E0C3940A4009E4ED
:0E194300F09063787402F0229063787401F0E3
:011951002273
:10210800906378E07008301628C2160203B3906313
:1021180078E0B4010B9063C2740BF0A374B8F0229A
:10212800906378E0B4020A9063C27405F0A374DC8B
:02213800F02293
:10201D0090637DE0FEA3E0FF90637AE0701AD3EF4A
:10202D009420EE940E5004D2178002C2179063C60E
:10203D007417F0A37470F022C3EF94C8EE940E40A1
:0D204D0002C2179063C67405F0A374DCF0A6
:01205A002263
:03004200020E7F2C
:100E7F00C0E0C0F0C083C082C0D075D000C000C039
:100E8F0001C002C003C004C005C006C007786BE2F2
:060E9F0020E103020F9F99
:100EA500AF93EF75F010A4FFE594C4540FFDEF4D1B
:100EB500FF906318E5F0F0A3EFF0E24402F29063CF
:090EC50079E064026003020F767B
:100ECE00121FCB5067E004F0E0C3940240539063CE
:100EDE004BE0FEA3D3121FBE400CE0FFA3E09063D5
:100EEE004BCFF0A3EFF090634DE0FEA3C3121FBEF5
:100EFE00500CE0FFA3E090634DCFF0A3EFF09063B2
:100F0E0047121FA6906318E0FEA3E0FFE4FCFDEB82
:100F1E002FFFEA3EFEED39FDEC38FC906347120AD6
:100F2E0089121FCB50067869E24401F2121FCB40A2
:100F3E0060A3121FD3FF7804120A76906376EEF048
:100F4E00A3EFF09063797403F0906346E4F090633E
:100F5E004BF0A3F090634D74FFF0A3F09063471233
:060F6E000A9500000000DE
:100F74008029906379E0B4050C906318E0FFA3E046
:100F840090634F8011906379E0B4070F906318E089
:0B0F9400FFA3E090637DCFF0A3EFF01F
:100F9F00D007D006D005D004D003D002D001D000A6
:0B0FAF00D0D0D082D083D0F0D0E03250
:0A0BFE004263D200004263D40000FD
:1022190043A820D2AF75D10178957401F21874766C
:0B222900F2789174A0F21874FDF2220C
:03001E0002195272
:10195200C0E0C0F0C083C082C0D075D000C000C05B
:1019620001C002C003C004C005C006C0077891E2EE
:0919720030E76AE24480F2D21869
:10197B0030172F9063D5E004F070069063D4E00429
:10198B00F09063D2E4F0A3F0C39063D5E09432906F
:10199B0063D4E094004037E4F0A3F090637A04F052
:1019AB00802C9063D3E004F070069063D2E004F0D7
:1019BB009063D4E4F0A3F0C39063D3E094409063BE
:0E19CB00D2E0941F4008E4F0A3F090637AF09D
:1019D9001220981221B6D007D006D005D004D00322
:1019E900D002D001D000D0D0D082D083D0F0D0E0C6
:0119F90032BB
:0B0C0800C113C1144263C80000C112F8
:1021F90043A901D2AF75D104907105E4F09071043F
:102209007424F090710174A0F090710074FDF022B3
:03002400021BBA02
:101BBA00C0E0C0F0C083C082C0D075D000C000C0F1
:101BCA0001C002C003C004C005C006C0079071016D
:101BDA00E030E74DE04480F09063CBE004F070061B
:101BEA009063CAE004F09063CDE004F0700690635D
:101BFA00CCE004F0C39063CDE0940D9063CCE09404
:101C0A00004006E4F0A3F0D214C39063CBE0940D35
:101C1A009063CAE094004006E4F0A3F0D2131220C5
:101C2A005BD007D006D005D004D003D002D001D0B3
:0C1C3A0000D0D0D082D083D0F0D0E032B7
:1022910078D2E254CFF2E24410F2907188E4F0C2B5
:0222A100922287
:10219200C39063A4E094589063A3E094025012C3E6
:1021A2009063A6E094589063A5E094025003D29203
:0421B20022C2922291
:040C13004163D70161
:072350007869E24401F2226A
:1021D80043A902D2AF75D10890710D7401F09071C6
:1021E8000C745DF090710974A0F090710874FDF0A2
:0121F80022C4
:030027000214C8F8
:1014C800C0E0C0F0C083C082C0D075D000C000C0EA
:1014D80001C002C003C004C005C006C0079071095E
:0E14E800E020E703021586907109E04480F0D1
:1014F6009063D6E004F0E0C39408400AA3E06006D7
:10150600E4F0906379F09063D6E0C3940A4007E470
:06151600F0D216A304F060
:10151C00906379E06004E0B4070D7F01121FDE9048
:10152C0063797401F08053906379E0B4010812235D
:10153C00507402F08044906379E0B4030D7F021282
:10154C001FDE9063797404F08030906379E0B4040A
:10155C00081223507405F08021906379E0B4050DD6
:10156C007F03121FDE9063797406F0800D9063790F
:10157C00E0B406061223507407F0D007D006D0054D
:10158C00D004D003D002D001D000D0D0D082D083F0
:05159C00D0F0D0E032A8
:100C170042600300004262650000426263100041C7
:100C270062670060406005FFFF00000000000000F1
:100C370000000000000000000000000000000000AD
:100C4700000000000000000000000000000000009D
:100C5700000000000000000000000000000000008D
:100C670000000000000000416000004160010041F9
:050C7700600200C11540
:101C46007F8BE47E06FDFC9063B2E0F8A3E0F9A387
:101C5600E0FAA3E0FB22EF25E0FFEE33FE74472F08
:101C6600F58274603EF58322D39063C5E094B89004
:101C760063C4E0940B22ECF0A3EDF09063B9E004AA
:101C8600F0229063B8E0FEA3E0FFC322906000E07C
:101C960025E02405F582E43460F58322E49063B8F8
:101CA600F0A3F02233FE74052FF58274603EF583AF
:101CB600229063B8E004F0229063B9E025E0FF903B
:041CC60063B8E022FD
:1003B3009063B2120A9500000000906376E0FFA3F9
:1003C300E09063B6CFF0A3EFF0906005E0F4700324
:0503D300A3E0F47049F5
:1003D800121CA3121C889420EE9400501A9063B645
:1003E800E0FCA3E0FDEF25E0FFEE121CAA121C7C46
:1003F80070E1121CB780DC121CA2121C88940EEE4D
:100408009401505E9063B6E0FCA3E0FD121C5C1200
:090418001C7C70E6121CB780E1A7
:10042100121C92E0FFA3E09063B8CFF0A3EFF0902D
:1004310063B6E0FEA3E0FF9063B9E02FF09063B8EC
:10044100E03EF0E0C313FEA3E013FF9063B8EEF0CB
:10045100A3EFF0121C92EEF0A3EFF0906000E00425
:09046100F0E0C394204002E4F035
:10046A00121CA2121C4D121CBE121CAAE0FEA3E012
:10047A00FFE4FCFDEB2FFFEA3EFEED39FDEC38FC14
:10048A009063B2120A89121C817003121CB790631E
:10049A00B8E07004A3E0642070C99063B2E0FCA3E2
:1004AA00E0FDA3E0FEA3E0FF7805120A769063B2AE
:0304BA00120A899A
:1004BD009063B2A3A3E0FEA3E0FDAC06906046E01E
:1004CD0025E0FF906045E033FE74472FF5827460A0
:1004DD003EF583ECF0A3EDF0906046E004F070067D
:1004ED00906045E004F0C3906046E0940E90604546
:0904FD00E094014004E4F0A3F0D6
:10050600121CA2906265F0A3F09062637410F0A3CF
:10051600E4F0121C88940EEE940140030205AE121C
:100526001C5CE0FCA3E0FD906265E0FAA3E0FBD36F
:10053600ED9BEC9A400F121C63E0FFA3E09062650E
:10054600CFF0A3EFF0121CBE121C61E0FCA3E0FD8D
:10055600906263E0FAA3E0FBC3ED9BEC9A500F12A6
:100566001C63E0FFA3E0906263CFF0A3EFF090621C
:1005760063E0FEA3E0FFC3906266E09FFF906265C2
:10058600E09EFED3EF9450EE9400400890626774AC
:100596001EF08009906267E06003E014F0121C818F
:0805A6007003121CB7020518D6
:1005AE00121C46C3120A65500B301568121C4612F7
:1005BE000A654060E4906001F0A3F0D21590626786
:1005CE00E0B41E20E014F0121C6E400CA3E024FFD9
:1005DE00F09063C4E034FFF0C3121C6F40030206B8
:1005EE00CE02067B906267E060030206CE20130304
:1005FE000206CEC213C39063C5E094709063C4E04C
:10060E00941740030206CEA3E004F070069063C474
:10061E00E004F022E47FC37E05121C4BD3120A6560
:10062E0040537F6D121C48D3120A6540089060013A
:10063E00E0640470402014030206CEC214906001E0
:10064E00E0C394045003E004F0E4906002F0C2159D
:10065E00121C6E40028053C3121C6F500DA3E00497
:10066E00F070069063C4E004F0229063C4740BF043
:10067E00A374B8F022E47FC37E05121C4BD3120A7A
:10068E00654006906002E06037301434C21490600A
:10069E00027401F0E4906001F0C215D39063C5E0DE
:1006AE0094089063C4E09407400DA3E024FEF090FC
:1006BE0063C4E034FFF0229063C47407F0A304F027
:0106CE002209
:100C7C00C1184463BA000000004463BE00000000C9
:101DAA009063BAE0FCA3E0FDA3E0FEA3E022E47F97
:101DBA00E87E03FDFCE0F8A3E0F9A3E0FAA3E0FB68
:101DCA00C3020A6594E8FFEE9403FEED9400FDEC6D
:101DDA009400FC020A89FFEE3401FEE43DFDE43C76
:101DEA00FC020A89C39063A4E094D89063A3E094A8
:0F1DFA0009229063A6E0943C9063A5E0940F2229
:1013E600E49063A3F0A3F09063A5F0A3F09063A24A
:1013F6007402F09063AB7409F0A374D8F09063ADF7
:10140600740FF0A3743CF0121DEE4008121DFC4050
:1014160003021499301863C218121DAA243B906364
:10142600BA121DE09063BA121DB8401A121DAA9096
:1014360063BA121DCE121DEE500CA3E004F0700626
:101446009063A3E004F09063BE121DAD24E79063A1
:10145600BE121DE09063BE121DB8401E9063BE1200
:101466001DAD9063BE121DCEC3121DFC500CA3E031
:1014760004F070069063A5E004F09063A3E0FEA379
:10148600E0FF1223259063A5E0FEA3E0FF12232EC2
:1014960002140D9063A3E0FFA3E09063A7CFF0A32F
:1014A600EFF09063A5E0FFA3E09063A9CFF0A3EF70
:1014B600F09063A27403F09063B004F09063AF04FD
:0114C600F035
:0114C7002202
:100C8C0060866268000000000000000000000000A8
:100C9C000000000000000000000000000000000048
:100CAC000000000000000000000000000000000038
:100CBC000000000000000000000000000000000028
:100CCC000000000000000000000000000000000018
:100CDC000000000000000000000000000000000008
:100CEC0000000000000000000000000000000000F8
:100CFC0000000000000000000000000000000000E8
:0A0D0C0000000000000000000000DD
:08234800E5D430E4FB8FD7223D
:10213A0078C2E254FCF2E24401F290717EE0440477
:10214A00F078E3E254F3F29071757416F075D601E3
:0C215A0075D59F75D21143AA20D2AF2288
:092337009062ECE0FEA3E0FF223D
:101F0D009062ECE07002A3E07002FF229062EBE0C1
:101F1D0004F070069062EAE004F0C39062EBE09486
:101F2D00809062EAE094004004E4F0A3F09062EA4D
:101F3D00E0FEA3E02468F58274623EF583E0FF9035
:0D1F4D0062EDE024FFF09062ECE034FFF064
:011F5A002264
:101E61009062E9E004F070069062E8E004F0C3904B
:101E710062E9E094809062E8E094004004E4F0A319
:101E8100F09062E8E0FCA3E02468F58274623CF51E
:101E910083EFF09062EDE004F070069062ECE004F4
:101EA100F0D39062EDE094809062ECE09400400603
:071EB100E4F0A37480F022AD
:03004B0002216629
:10216600C0E0C083C082C0D075D000C004C007E5FF
:04217600D430E50B71
:0B217A00906342E5D7F0E0FF121E6109
:0D218500D007D004D0D0D082D083D0E0327B
:1006CF005541525420726563656976652074696D72
:1006DF00656F75742C2063757272656E74207374F8
:1006EF00617475733A2025750A00427566666572E6
:1006FF0020636F6E74656E743A200A00307825306F
:10070F00327820000A0066756E63203A2075617298
:10071F00745F636D645F706169725F68616E646C52
:10072F00650A0066756E63203A20756172745F63A7
:10073F006D645F63616E63656C5F70616972696E32
:10074F00675F68616E646C650A0066756E63203A58
:10075F0020756172745F636D645F7365745F636F3F
:10076F006C6F725F68616E646C650A00756172749C
:10077F005F72656365697665722E726563765F6C0D
:10078F00656E203D3D2025750A006572720A007363
:10079F00657420636F6C6F722074656D702069646F
:1007AF007820310A0073657420636F6C6F72207448
:1007BF00656D702069647820320A00736574206358
:1007CF006F6C6F722074656D702069647820330AC6
:1007DF000073657420636F6C6F7220746F20626C8E
:1007EF0075650A0073657420636F6C6F7220746F88
:1007FF00206379616E0A0073657420636F6C6F728A
:10080F0020746F20677265656E0A007365742063CC
:10081F006F6C6F72206D6F6465206572720A00666F
:10082F00756E63203A20756172745F636D645F73D8
:10083F0065745F6272696768746E6573735F6C6508
:10084F00765F68616E646C650A007365742062720E
:10085F00696768746E657373206C657620310A0062
:10086F00736574206272696768746E657373206C48
:10087F00657620320A007365742062726967687446
:10088F006E657373206C657620330A007365742070
:10089F006272696768746E657373206C6576203455
:1008AF000A00736574206272696768746E6573738A
:1008BF00206C657620350A00736574206272696753
:1008CF0068746E657373206C657620360A00427902
:1008DF0074652070726F63657373696E67206661EC
:1008EF00696C65640A006375722075617274207299
:1008FF0065636569766572207374617475733A20E8
:10090F00253032640A007265637620636D643A2085
:10091F00646576206F6E0A007265637620636D647E
:10092F003A20646576206F66660A007265637620EA
:10093F00636D643A20706169720A00726563762094
:10094F00636D643A2063616E63656C2070616972D8
:10095F00696E670A007265637620636D643A20736F
:10096F00657420636F6C6F720A0072656376206323
:10097F006D643A20736574206272696768746E657E
:08098F007373206C65760A0009
:101E09007BFF7A07790B747F2EF582E43463F583BF
:101E1900E0FF90631DE4F0A3EFF022906394E004E7
:101E2900F0A3229063A2E09063A1F0A37404F0E40C
:101E39009063B1F0229063A2E0640222E0247FF56E
:101E490082E43463F583227409F0E4F9A3227BFF69
:081E59007A07797B9063942263
:1022A300E4906393F0A3F0A3F0A3F0A3F0A3F0A34F
:0222B300F02217
:1021B600906397E0601BC3906399E094FF906398E7
:1021C600E094FF500CA3E004F07006906398E004DE
:0221D600F022F5
:101EB800C3906399E094D0906398E0940740457B81
:101EC800FF7A0679CF906396121E191200B97BFF2C
:101ED8007A0679F91200B9E49062EFF0906393E022
:101EE800FF9062EFE0FEC39F500E121E091200B968
:101EF8009062EFE004F080E47BFF7A077913120028
:041F0800B91222A345
:011F0C0022B2
:050FBA009062EFEFF072
:100FBF007901E49062F1F0906396E014602314607D
:100FCF002D14603714604C14700302107C240560DC
:100FDF00030210CD9062EFE0644A60030210CD80EF
:100FEF00259062EFE0645960030210CD8018906283
:100FFF00EFE0644D60030210CD800B9062EFE06470
:10100F004360030210CDF9906396E004F09063946F
:10101F000210CA9062EFE024EC601F24E8602714EE
:10102F00602D24F8603124FD603824256003021000
:10103F00CD121E24121E500210CA121E247408F064
:10104F00E4F9A30210CA121E24121E500210CA1273
:10105F001E24121E508064121E24740BF0E4F9A398
:10106F008059121E24740AF0E4F9A3804EE4F91299
:10107F001E24E0FF906394E0C39F4042E49062F02F
:10108F00F0906394E014FF9062F0E0C39F5019A3B7
:10109F00E0FF9062F0121E45E0FEEF6E9062F1F0FD
:1010AF009062F0E004F080D99062EFE0FF9062F17F
:1010BF00E06F600479018006906396E004F0E970B8
:1010CF00139062EFE0FF906393121E45EFF0906371
:0610DF0093E004F0AF01F4
:0110E50022E8
:10223400121E3E6014E06403600FE06404600AE070
:0A224400640160057401121E3722C8
:07235700121E3E6001E022AE
:0D22DD007BFF7A0779151200B9121E2C2222
:0D22EA007BFF7A0779321200B9121E2C22F8
:101200007BFF7A0779591200B9121E3E600990637C
:1012100094E0C3940B5012121E57121E191200B9FB
:101220007BFF7A0779990200B9906387E0B4D316FF
:10123000A3E0B442117BFF7A07799E1200B9E490D3
:1012400063B0F00212ED906387E0B47212A3E0B4D1
:10125000A50D7A0779B41212F17401F00212ED9023
:101260006387E0B43F12A3E0B4D10D7A0779CA12C4
:1012700012F17402F00212ED906387E07011A3E0A6
:10128000B4FF0C7A0779E01212FA7403F0805E90D2
:101290006387E0B43F11A3E0B4A50C7A0779F31299
:1012A00012FA7404F08046906387E0B4FF15A3E05F
:1012B00070117BFF7A0879061200B99063B074054B
:1012C000F0802A7BFF7A08791A1200B9E49062EF65
:1012D000F0906394E0FF9062EFE0FEC39F500E1227
:1012E0001E091200B99062EFE004F080E4120D2AAA
:1012F000227BFF1200B99063B0227BFF1200B990ED
:0313000063B022B5
:10173A007BFF7A08792E1200B9121E3E6009906367
:10174A0094E0C3940A5012121E57121E191200B9BD
:10175A007BFF7A0779990200B9906386E0B4051095
:10176A007BFF7A0879591200B9E49063AFF080627E
:10177A00906386E0B40A0C7A08796F1217E0740154
:10178A00F0804F906386E0B4190C7A0879851217B5
:10179A00E07402F0803C906386E0B4320C7A0879F7
:1017AA009B1217E97403F08029906386E0B44B0C0E
:1017BA007A0879B11217E97404F08016906386E00A
:1017CA00B4640F7BFF7A0879C71200B99063AF74CB
:1017DA0005F0120D2A227BFF1200B99063AF227B1B
:0817EA00FF1200B99063AF2269
:10167000906397E06003121EB8122337EF4E60416B
:10168000906396E064066039121F0DAD0790639772
:101690007401F0E4A3F0A3F0120FBAEF60DB9063E3
:1016A00096E060187BFF7A0879DD1200B97BFF7A3B
:1016B0000879F5906396121E191200B91222A380C0
:1016C000B8906396E064067070906383E024EC60E9
:1016D0002124E8602B14603624F8604024FD604A21
:1016E000242570527BFF7A0979151200B912223431
:1016F00080447BFF7A0979271200B912235780367C
:101700007BFF7A09793A1200B91222DD80287BFF2B
:101710007A09794A1200B91222EA801A7BFF7A0903
:1017200079641200B9121200800C7BFF7A09797972
:091730001200B912173A1222A3AB
:01173900228D
:1020D2006272656174682073746120696E69740A42
:1020E200006272656174682070726F6772657373E3
:1020F200203D2025750A0062726561746820666958
:062102006E6973680A001B
:100D160042639A000041639C0042639D0000426367
:030D26009F00002B
:101303009063A7E0FEA3E0FF7C00120AC6E47B64BF
:10131300FAF9F81209D39063A7EEF0A3EFF0906304
:10132300A9E0FEA3E0FF7C00229063ABE0FEA3E014
:10133300FF90639DE0FCA3E0FD120AC6E47B887A7C
:1013430013F9F81209D39063A3EEF0A3EFF09063BF
:10135300ADE0FEA3E090639DFFE0FCA3E0FD120A75
:10136300C6E47B887A13F9F80209D39063B1F0904D
:1013730063ADE0FEA3C3E0FF9063ACE09F9063AB7B
:10138300E09E229063A5E0FEA3E0FF229063A3E02A
:10139300FEA3E0FF227C137D88020AC6C390639BF1
:1013A300E0948890639AE0941322C390639EE09440
:1013B3008890639DE0941322EE9063A5F0A3EFF071
:1013C300229063A3F0A3EFF09063ADE022E0FEA3CD
:1013D300E0FBAA06E4F9F8229063AEE09F9063ADC8
:0313E300E09E2267
:100D2A009063B0E014602914603C14604F14605F53
:100D3A0014607224056003020E7E9063A77406F0A5
:100D4A00A37418F09063A97413F0A37474F0806606
:100D5A009063A7740FF0A3743CF09063A9740AF02F
:100D6A00A3748CF080509063A77413F0A37438F0C6
:100D7A009063A97405F0A374DCF0803A9063A774B9
:100D8A0017F0A37470F0E49063A9F0A3F0802790A1
:100D9A0063A77409F0A374D8F09063A9740FF0A341
:100DAA00743CF08011E49063A7F0A3F09063A974F7
:100DBA0017F0A37470F09063AFE014601A14602106
:100DCA0014602E14603A146046240570637D05127F
:100DDA0013037D05020E267D0A1213037D0A020EF5
:100DEA00269063A71213247D1912130D7D19020E82
:100DFA00269063A71213247D3212130D7D32801CB4
:100E0A009063A71213247D4B12130D7D4B800D9016
:100E1A0063A71213247D6412130D7D64120AC6E4BB
:100E2A007B64FAF9F81209D39063A9EEF0A3EFF004
:100E3A009063A7E0FEA3E0FF121CCA9063ABEEF03A
:100E4A00A3EFF09063A9E0FEA3E0FF121CCA90632F
:100E5A00ADEEF0A3EFF09063ABE0FFA3E0CF121387
:100E6A00C4FFA3E0CF1213BC12138F12232512134F
:050E7A008612232E2268
:1017F2009063B1E014603904600302188A74011224
:10180200136E400F12138F121398C006C007906315
:10181200AB800D121386121398C006C0079063ADF9
:101822001213D0D007D0061209D390639A021885FA
:101832009063A2E0B4011312139F5029A3E004F0B5
:10184200702390639AE004F0801BD390639BE09432
:101852000090639AE09400400CA3E024FFF09063B0
:101862009AE034FFF09063ABE0FEA3E090639A123B
:10187200135BEE1213C4FEA3E0FF90639A12135C93
:101882009063A5EEF0A3EFF09063A2E0B4010B1217
:10189200139F40069063A27403F012138F12232544
:0618A20012138602232E42
:101D3C009063A3E0FEA3D312137940109063A4E048
:101D4C0004F0701E9063A3E004F080169063A3125D
:101D5C001375500E9063A4E024FFF09063A3E0345D
:101D6C00FFF0121386D31213DB40109063A6E0042D
:101D7C00F0701F9063A5E004F08017121386C31255
:101D8C0013DB500E9063A6E024FFF09063A5E034C3
:0E1D9C00FFF012138F12232512138602232E3E
:1010E6009063B1E014700302117D1470030211A025
:1010F600240260030211D8E490639CF0A3F0A3F0ED
:101106009063A3E07002A3E0700A9063A5E070020A
:10111600A3E06037740212136E400F12138F12137E
:1011260098C006C0079063AB800D12138612139801
:10113600C006C0079063AD1213D0D007D0061209BF
:10114600D390639DEEF0A3EFF080069063B1740137
:10115600F07BFF7A2079D21200B97BFF7A2079E3FF
:1011660090639DE0FFA3E090631DCFF0A3EFF01224
:1011760000B9B2A60211D81213AD500CA3E004F0C8
:10118600700690639DE004F012132C1213BB121329
:10119600AD403F9063B17402802FD390639EE0947C
:1011A6000090639DE09400400CA3E024FFF0906360
:1011B6009DE034FFF012132C1213BB90639DE07078
:1011C60002A3E0700D9063B104F090639CE004F01C
:1011D600B2A690639CE0C3940A4013E4F09063A126
:1011E600E0A3F07BFF7A2079F91200B9B2A61213B8
:0A11F6008F12232512138602232E08
:10205B009063A0E004F0700690639FE004F090633F
:10206B00A2E014600B24FE600A14601D2404701C93
:10207B000217F2C39063A0E0941490639FE0940066
:0C208B00400AE4F0A3F0021D3C1210E635
:012097002226
:101B3A00021A97E493A3F8E493A34003F68001F210
:101B4A0008DFF48029E493A3F85407240CC8C333AC
:101B5A00C4540F4420C8834004F456800146F6DF7B
:101B6A00E4800B0102040810204080900B91E47E6F
:101B7A00019360BCA3FF543F30E509541FFEE49370
:101B8A00A360010ECF54C025E060A840B8E493A337
:101B9A00FAE493A3F8E493A3C8C582C8CAC583CA62
:101BAA00F0A3C8C582C8CAC583CADFE9DEE780BE1A
:010D290000C9
:1009970075F008758200EF2FFFEE33FECD33CDCC17
:1009A70033CCC58233C5829BED9AEC99E58298409A
:1009B7000CF582EE9BFEED9AFDEC99FC0FD5F0D677
:1009C700E4CEFBE4CDFAE4CCF9A88222B800C1B9A1
:1009D7000059BA002DEC8BF084CFCECDFCE5F0CBDF
:1009E700F97818EF2FFFEE33FEED33FDEC33FCEB18
:1009F70033FB10D703994004EB99FB0FD8E5E4F9D3
:100A0700FA227818EF2FFFEE33FEED33FDEC33FCBF
:100A1700C933C910D7059BE99A4007EC9BFCE99AB3
:100A2700F90FD8E0E4C9FAE4CCFB2275F010EF2FF8
:100A3700FFEE33FEED33FDCC33CCC833C810D707F8
:100A47009BEC9AE899400AED9BFDEC9AFCE899F833
:0E0A57000FD5F0DAE4CDFBE4CCFAE4C8F922C6
:100A6500EB9FF5F0EA9E42F0E99D42F0E89C45F0E7
:010A7500225E
:100A7600E8600FECC313FCED13FDEE13FEEF13FF5E
:030A8600D8F12282
:0C0A8900ECF0A3EDF0A3EEF0A3EFF022E0
:100A9500A8828583F0D083D082120AAC120AAC12E8
:100AA5000AAC120AACE473E493A3C583C5F0C5830D
:100AB500C8C582C8F0A3C583C5F0C583C8C582C8AB
:010AC500220E
:100AC600EC8EF0A4CCC5F0CCCDF8EFA4CEC5F02DBD
:100AD600FDE43CFCE8A42EC8C5F03DFDE43CFCEF7B
:0D0AE600A4FFE5F028FEE43DFDE43CFC2209
:10004E00E50D241DF582E43463F583E0050D229061
:10005E00631A30100390631DE475F001120B4B020E
:10006E000AF32009E97F2ED2098018EF540F24904D
:10007E00D43440D4FF300D0BEF24BFB41A0050031C
:10008E002461FFE50E6002150E0511E511700205E3
:10009E001030100E90631AE475F001120B4BEF0244
:1000AE000B390223487403D2108003E4C210F50DFD
:1000BE0090631A120B62E4F50EF510F511E50E6061
:1000CE00077F2012009180F5750FFFC20AC209C288
:1000DE000BC20CC20EC20FC21112005DFF700D30AA
:1000EE0010057F001200A2AF11AE1022B4255FC220
:1000FE00D5C20D12005DFF24D0B40A00501A75F05F
:10010E000A780E30D50508B6FF0106C6A426F620DD
:10011E00D5047002D20C80D924CFB41A00EF50044B
:10012E00C2E5D20D0202A3D20A80C6D20980C0D285
:10013E000B80BCD2D580BAD20E80B47F2012009133
:10014E00200B077401B50E0040F112004EFF120095
:10015E00910200CBD211D20F809512004EFB1200ED
:10016E004EFA12004EF94A4B700679747A037BFFF1
:10017E00200B2EE50E602A7E008E82758300120BF8
:10018E000C60060EEE650F70F0C2D5EBC0E0EAC053
:10019E00E0E9C0E0EE1202EAD0E0F9D0E0FAD0E0F9
:1001AE00FB120AF3FF60AAEBC0E0EAC0E0E9C0E090
:1001BE00120091D0E02401F9D0E03400FAD0E0FB37
:1001CE00E50F0460DCD50FD980877BFF7A0279E6D4
:1001DE00D20B809C791080027908C20FC211800860
:1001EE00D2D5790A8004790AC2D5E50F047002F5DA
:1001FE000FE4FAFDFEFF12004EFC7B08200A1312DC
:10020E00004EFD7B1030090A12004EFE12004EFF0A
:10021E007B20EC3382D592D55013C3E43009069F70
:10022E00FFE49EFEE4200A039DFDE49CFCE4CBF873
:10023E00C20AEC700CCFCECDCCE824F8F870F38067
:10024E0017C3EF33FFEE33FEED33FDEC33FCEB3330
:10025E00FB994002FB0FD8E9EB300A05F8D0E0C459
:10026E0048B20AC0E00AEC4D4E4F78207B0070C2B7
:10027E00EAB50F0040BCC0E01202ECD0F0D0E02096
:10028E000A04C4C0E0C4B20AC0F012007AD0F0D59D
:10029E00F0EB0200CB120B6B01685301E2580139EF
:1002AE004C01354201E64F01EE4401EE49014E4349
:0802BE0001F45501D84601D8F6
:1002C6004501D847039450013D2D01412E01642B71
:1002D600014523016220037D2A00FD480000015CE0
:1002E6003F3F3F00790AA2D5200C14300E09B91001
:1002F600020404B9080104A2D5200F02500104200B
:100306000B68920BB50E005034C0E07F20300C19FC
:100316007F30A20B720F720E500F120343C20BC234
:100326000FC20EC2117F30800F300E03E9C0E012FB
:100336000091300E03D0E0F9D0E0B50ECC300E17A8
:100346007F30B9100C1200917F58300D077F7880EE
:1003560003B90803120091300B057F2D0200917F2F
:10036600202011F87F2B200FF322920B80CF286ECE
:10037600756C6C2900D20A12004E300AF8C20A784F
:100386000E30D50108F60200FD2D504349581200E3
:100396004E2403B405004001E490038F93120082BB
:0D03A600743A120082D20C750E040201E2BE
:100AF300BB010689828A83E0225002E722BBFE0201
:090B0300E32289828A83E4932233
:100B0C00BB010CE58229F582E5833AF583E022509E
:100B1C0006E92582F8E622BBFE06E92582F8E222E8
:0D0B2C00E58229F582E5833AF583E4932202
:100B3900BB010689828A83F0225002F722BBFE019B
:020B4900F32295
:100B4B00F8E0FBA3A3E0F925F0F0E5821582700233
:070B5B001583E0FA38F022D7
:090B6200EBF0A3EAF0A3E9F02294
:100B6B00D083D082F8E4937012740193700DA3A319
:100B7B0093F8740193F5828883E47374029368602D
:060B8B00EFA3A3A380DF2D
:00000001FF
