:030000000214E205
:0C14E200787FE4F6D8FD75812202152900
:0C000300000000000000000000000000F1
:0B1BFE00EF1FAC0670011E4C70F622B9
:10002A00AB07AA06EB1BAE0270011A4E60097FAA43
:08003A007E05121BFE80ED2281
:100F8200907120E04480F07F057E00121BFEE4FF9A
:100F9200FE12002A75A75575AC589071327450F044
:100FA2009071307403F0907136742FF07F18EF2433
:100FB20066FDE434718D82F583E4F00FEFB433EE15
:100FC200904011E4935407FF90711CE054F84FF0E5
:100FD200904017E493547FFF90711DE054804FF0CE
:100FE200904010E493FF5401C43333335480FE9095
:100FF2007123E0547F4EF0EFC313543F4440FFA3EC
:10100200E054804FF0904012E493FF540FFE907131
:1010120046E054F04EF0EFC4540FFF90714FE0548D
:10102200F04FF0904013E493543FFF907140E0542E
:10103200C04FF0904014E493907126F0904015E474
:0E10420093907128F0904016E49390712AF07C
:01105000227D
:0B1C09007379732072657365740A0024
:081C38007417F0A37470F02290
:1013170075D9DD120F8275D95590715EE054FEF0D4
:1013270075D9BB121A1E121BA07BFF7A1C790912F2
:1013370000B978E3E254CFF2E24410F2907194E4FA
:10134700F0121B36121B7C121B1B1213B4121ADD70
:10135700121ABC121B8E78D3E254FCF2E24401F25B
:1013670090718AE4F0C294906392121C3890638E55
:10137700121C38906390121C381211C5121974127E
:1013870019EC90637CE0FEA3E0FF12167E90638069
:10139700EEF0A3EFF090637EE0FEA3E0FF12167E6F
:0D13A700906382EEF0A3EFF012111980CCDC
:0F08C90042638E177042639017704263921770EC
:1018B200FFE0FCA3E0FD1207FEE47B707A17F9F863
:1018C20012070B90632EEEF0A3EFF090632EE0FE72
:1018D200A3E0FFC390632DE09F90632CE09E2290D3
:1018E200632AE0FEA3E022AC06ECF218EFF27817CE
:0218F200E222F0
:1013B4007812E24401F278567407F278277417F22F
:1013C40018746FF27833E4F218F27819E24401F2F7
:1013D4007811E24401F27817E24401F27812E2440F
:1013E40001F27814E24401F27818E24401F278D36D
:1013F400E254CFF2E24410F290718C740AF0781245
:10140400E24402F278577407F278297417F21874D8
:101414006FF27837E4F218F27819E24402F27811A4
:10142400E24402F27817E24402F27812E24402F251
:101434007814E24402F27818E24402F278C3E254E7
:0D144400F3F2E24404F29071837409F02287
:091C140078331218E94401F222B0
:091C1D0078371218E94402F222A2
:0C1BDA007818E230E0037F01227F002237
:0C1BE6007818E230E1037F01227F00222A
:0D1BC0007818E24401F290718C740AF02252
:0E000F0090718CE4F0D2967818E254FEF22242
:0D1BCD007818E24402F29071837409F0224E
:0E1BB200907183E4F0D2857818E254FDF2229F
:08167E0090632AEEF0A3EFF0E7
:10168600A3EEF0A3EFF090638EE064177004A3E07E
:10169600647060101218E190638E1218B24005EE65
:1016A600F0A3EFF0906390E064177004A3E0647019
:1016B60060101218E19063901218B24005EEF0A384
:1016C600EFF0906392E064177004A3E06470601119
:1016D6001218E1FF9063921218B34005EEF0A3EFE3
:0916E600F090632CE0FEA3E0FF8C
:0116EF0022D8
:1008D80041632300C1104163250041632400416343
:1008E800000060206301FFFF00000000000000001E
:1008F80000000000000000000000000000000000F0
:100908000000000000004462FC000000004162EEAC
:10091800004162EF004162F0004162F1004462F27E
:0E092800000000004262F600004262F8FFFF8D
:1018F4007FEA7E0B90632AFDFCE0F8A3E0F9A3E005
:10190400FAA3E0FB22F0E0441EF09071227407F089
:1019140022E0FF906357E09F906356E09E2290621E
:10192400F1E0C3941422E0FCA3E0FDA3E0FEA3E0F5
:011934002290
:101B360078F2E24403F278E3E244C0F278F2E24457
:091B46000CF278D2E244C0F22254
:101B7C0043AA04D2AF786AE24479F27F017E000274
:021B8C00002A2D
:10193500EF24FE60191460242402702C907123E0BA
:1019450054D8F0E0441D12190D759917801A90713D
:1019550023E054F8121909759918800C907123E049
:0F19650054D812190975990B7869E24448F22297
:101B4F009062FAE0FEA3E0FF7C007D0C1207FEE43A
:081B5F007B0AFAF9F802070BFA
:1019B200906323E0B4012874FFFFFE9062FC1218CA
:1019C200FBC312079D50229062FC12192A2401FFC8
:1019D200E43EFEE43DFDE43CFC9062FC0207C19063
:0A19E20062FC1207CD000000002295
:1011C50090632A1207CD00000000906323E06402BB
:0511D500700302126E20
:1011DA009062EEE004F0E0C39464500302126EE4FD
:0111EA00F014
:0F11EB00121B4F90632A1207C1906323E0702CF0
:1011FA001218F4C312079D50089062EFE004F080C1
:10120A0005E49062EFF09062EFE0C3940AE44007CD
:0C121A00F090632304F022906323F02284
:10122600906323E0640170407F307E75FDFC906220
:0A123600FC1218FDC312079D402EA4
:10124000E41218F412079D50089062F0E004F08058
:1012500005E49062F0F09062F0E0C3940A4009E483
:0E126000F09063237402F0229063237401F077
:01126E00225D
:1019EC00906323E07008300D28C20D0203B390639E
:1019FC0023E0B4010B90638E740BF0A374B8F02247
:101A0C00906323E0B4020A90638E7405F0A374DC37
:021A1C00F022B6
:10197400906328E0FEA3E0FF906325E0701AD3EFA4
:101984009420EE940E5004D2108002C21090639200
:101994007417F0A37470F022C3EF94C8EE940E4051
:0D19A40002C2109063927405F0A374DCF091
:0119B1002213
:03004200020A5659
:100A5600C0E0C0F0C083C082C0D075D000C000C066
:100A660001C002C003C004C005C006C007786BE21F
:060A760020E103020B76F3
:100A7C00AF93EF75F010A4FFE594C4540FFDEF4D48
:100A8C00FF906356E5F0F0A3EFF0E24402F29063BE
:090A9C0024E064026003020B4D2A
:100AA5001219225067E004F0E0C3940240539062AB
:100AB500F6E0FEA3D3121915400CE0FFA3E0906207
:100AC500F6CFF0A3EFF09062F8E0FEA3C31219157C
:100AD500500CE0FFA3E09062F8CFF0A3EFF0906236
:100AE500F21218FD906356E0FEA3E0FFE4FCFDEB77
:100AF5002FFFEA3EFEED39FDEC38FC9062F212075D
:100B0500C112192250067869E24401F212192240F5
:100B150060A312192AFF78041207AE906321EEF044
:100B2500A3EFF09063247403F09062F1E4F0906217
:100B3500F6F0A3F09062F874FFF0A3F09062F21261
:060B450007CD00000000D6
:100B4B008029906324E0B4050C906356E0FFA3E08A
:100B5B009062FA8011906324E0B4070F906356E023
:0B0B6B00FFA3E0906328CFF0A3EFF0A1
:100B7600D007D006D005D004D003D002D001D000D3
:0B0B8600D0D0D082D083D0F0D0E0327D
:0A09360042639A000042639C000037
:101B1B0043A820D2AF75D10178957401F218747671
:0B1B2B00F2789174A0F21874FDF22211
:03001E0002126F5C
:10126F00C0E0C0F0C083C082C0D075D000C000C045
:10127F0001C002C003C004C005C006C0077891E2D8
:09128F0030E76AE24480F2D20F5C
:1012980030102F90639DE004F0700690639CE0048A
:1012A800F090639AE4F0A3F0C390639DE0943290C9
:1012B800639CE094004037E4F0A3F090632504F0C9
:1012C800802C90639BE004F0700690639AE004F031
:1012D80090639CE4F0A3F0C390639BE09440906318
:0E12E8009AE0941F4008E4F0A3F0906325F014
:1012F6001219B2121A9AD007D006D005D004D0031C
:10130600D002D001D000D0D0D082D083D0F0D0E0AF
:0113160032A4
:0B094000C10AC10B4263940000C10912
:101ADD0043A901D2AF75D104907105E4F090710462
:101AED007424F090710174A0F090710074FDF022D7
:0300240002156E54
:10156E00C0E0C0F0C083C082C0D075D000C000C043
:10157E0001C002C003C004C005C006C007907101BF
:10158E00E030E74DE04480F0906397E004F07006A1
:10159E00906396E004F0906399E004F07006906317
:1015AE0098E004F0C3906399E0940D906398E094F2
:1015BE00004006E4F0A3F0D20BC3906397E0940DC5
:1015CE00906396E094004006E4F0A3F0D20A121461
:1015DE0051D007D006D005D004D003D002D001D010
:0C15EE0000D0D0D082D083D0F0D0E0320A
:101B8E0078D2E254CFF2E24410F2907188E4F0C2BF
:021B9E00922291
:101A7600C3906379E09458906378E094025012C35F
:101A860090637BE0945890637AE094025003D2927C
:041A960022C29222B4
:04094B004163A20161
:071C48007869E24401F22279
:101ABC0043A902D2AF75D10890710D7401F09071E9
:101ACC000C745DF090710974A0F090710874FDF0C5
:011ADC0022E7
:03002700020EA91D
:100EA900C0E0C0F0C083C082C0D075D000C000C00F
:100EB90001C002C003C004C005C006C00790710983
:0E0EC900E020E703020F67907109E04480F01B
:100ED7009063A1E004F0E0C39408400AA3E0600631
:100EE700E4F0906324F09063A1E0C3940A4007E420
:060EF700F0D20DA304F08F
:100EFD00906324E06004E0B4070D7F011219359072
:100F0D0063247401F08053906324E0B40108121C33
:100F1D00487402F08044906324E0B4030D7F021204
:100F2D0019359063247404F08030906324E0B40488
:100F3D0008121C487405F08021906324E0B4050D5F
:100F4D007F031219359063247406F0800D9063248D
:100F5D00E0B40606121C487407F0D007D006D00581
:100F6D00D004D003D002D001D000D0D0D082D08315
:050F7D00D0F0D0E032CD
:10094F004260030000426265000042626310004192
:10095F0062670060406005FFFF00000000000000BC
:10096F000000000000000000000000000000000078
:10097F000000000000000000000000000000000068
:10098F000000000000000000000000000000000058
:10099F0000000000000000416000004160010041C4
:0509AF00600200C10C14
:1015FA007F8BE47E06FDFC90632AE0F8A3E0F9A362
:10160A00E0FAA3E0FB22EF25E0FFEE33FE74472F5A
:10161A00F58274603EF58322D3906391E094B8908A
:10162A006390E0940B22ECF0A3EDF0906331E004B8
:10163A00F022906330E0FEA3E0FFC322906000E056
:10164A0025E02405F582E43460F58322E4906330D2
:10165A00F0A3F02233FE74052FF58274603EF58301
:10166A0022906330E004F022906331E025E0FF909D
:04167A006330E022D7
:1003B30090632A1207CD00000000906321E0FFA3A1
:1003C300E090632ECFF0A3EFF0906005E0F47003AC
:0503D300A3E0F47049F5
:1003D80012165712163C9420EE9400501A90632E71
:1003E800E0FCA3E0FDEF25E0FFEE12165E121630EA
:1003F80070E112166B80DC12165612163C940EEE43
:100408009401505E90632EE0FCA3E0FD12161012DA
:09041800163070E612166B80E14B
:10042100121646E0FFA3E0906330CFF0A3EFF09007
:10043100632EE0FEA3E0FF906331E02FF090633084
:10044100E03EF0E0C313FEA3E013FF906330EEF053
:10045100A3EFF0121646EEF0A3EFF0906000E00477
:09046100F0E0C394204002E4F035
:10046A0012165612160112167212165EE0FEA3E05A
:10047A00FFE4FCFDEB2FFFEA3EFEED39FDEC38FC14
:10048A0090632A1207C1121635700312166B906315
:10049A0030E07004A3E0642070C990632AE0FCA3F2
:1004AA00E0FDA3E0FEA3E0FF78051207AE90632A01
:0304BA001207C165
:1004BD0090632AA3A3E0FEA3E0FDAC06906046E0A6
:1004CD0025E0FF906045E033FE74472FF5827460A0
:1004DD003EF583ECF0A3EDF0906046E004F070067D
:1004ED00906045E004F0C3906046E0940E90604546
:0904FD00E094014004E4F0A3F0D6
:10050600121656906265F0A3F09062637410F0A321
:10051600E4F012163C940EEE940140030205AE126E
:100526001610E0FCA3E0FD906265E0FAA3E0FBD3C1
:10053600ED9BEC9A400F121617E0FFA3E090626560
:10054600CFF0A3EFF0121672121615E0FCA3E0FD31
:10055600906263E0FAA3E0FBC3ED9BEC9A500F12A6
:100566001617E0FFA3E0906263CFF0A3EFF090626E
:1005760063E0FEA3E0FFC3906266E09FFF906265C2
:10058600E09EFED3EF9450EE9400400890626774AC
:100596001EF08009906267E06003E014F0121635E1
:0805A600700312166B02051828
:1005AE001215FAC312079D500B300C681215FA1271
:1005BE00079D4060E4906001F0A3F0D20C9062675A
:1005CE00E0B41E20E014F0121622400CA3E024FF2B
:1005DE00F0906390E034FFF0C3121623400302063E
:1005EE00CE02067B906267E060030206CE200A030D
:1005FE000206CEC20AC3906391E09470906390E0BD
:10060E00941740030206CEA3E004F07006906390A8
:10061E00E004F022E47FC37E051215FFD312079D7E
:10062E0040537F6D1215FCD312079D400890600158
:10063E00E064047040200B030206CEC20B906001F2
:10064E00E0C394045003E004F0E4906002F0C20CA6
:10065E0012162240028053C3121623500DA3E0043B
:10066E00F07006906390E004F022906390740BF0AB
:10067E00A374B8F022E47FC37E051215FFD31207D0
:10068E009D4006906002E06037300B34C20B9060E4
:10069E00027401F0E4906001F0C20CD3906391E01B
:1006AE009408906390E09407400DA3E024FEF09030
:1006BE006390E034FFF0229063907407F0A304F08F
:0106CE002209
:1009B400C10E4463860000000044638A0000000006
:0209C400C10F61
:1016F000906386E0FCA3E0FDA3E0FEA3E022E47F8C
:10170000E87E03FDFCE0F8A3E0F9A3E0FAA3E0FB28
:10171000C302079D94E8FFEE9403FEED9400FDECF8
:101720009400FC0207C1FFEE3401FEE43DFDE43C01
:10173000FC0207C1C3906379E094D8906378E09489
:10174000092290637BE0943C90637AE0940F22CF6F
:0C175000F0A3EFF090637AE0FFA3E0222A
:10105100E4906378F0A3F090637AF0A3F0D20E12DB
:101061001734400812174240030210EC300F63C2DC
:101071000F1216F0243B9063861217269063861296
:1010810016FE401A1216F0906386121714121734C6
:10109100500CA3E004F07006906378E004F09063D4
:1010A1008A1216F324E790638A12172690638A1234
:1010B10016FE401E90638A1216F390638A1217146B
:1010C100C3121742500CA3E004F0700690637AE05B
:1010D10004F0906378E0FEA3E0FF121C1490637AA1
:1010E100E0FEA3E0FF121C1D021060906378E0FF98
:1010F100A3E090638012174F906382CFF0A3EFF0CB
:10110100906378E0FFA3E090637C12174F90637EB9
:08111100CFF0A3EFF0C20E22A3
:1009C6006086626800000000000000000000000071
:1009D6000000000000000000000000000000000011
:1009E6000000000000000000000000000000000001
:1009F60000000000000000000000000000000000F1
:100A060000000000000000000000000000000000E0
:100A160000000000000000000000000000000000D0
:100A260000000000000000000000000000000000C0
:100A360000000000000000000000000000000000B0
:0A0A460000000000000000000000A6
:081C4000E5D430E4FB8FD7224C
:101A1E0078C2E254FCF2E24401F290717EE044049A
:101A2E00F078E3E254F3F29071757416F075D60106
:0C1A3E0075D59F75D21143AA20D2AF22AB
:091C26009062ECE0FEA3E0FF2255
:101864009062ECE07002A3E07002FF229062EBE071
:1018740004F070069062EAE004F0C39062EBE09436
:10188400809062EAE094004004E4F0A3F09062EAFD
:10189400E0FEA3E02468F58274623EF583E0FF90E5
:0D18A40062EDE024FFF09062ECE034FFF014
:0118B1002214
:1017BC009062E9E004F070069062E8E004F0C390F7
:1017CC0062E9E094809062E8E094004004E4F0A3C5
:1017DC00F09062E8E0FCA3E02468F58274623CF5CA
:1017EC0083EFF09062EDE004F070069062ECE004A0
:1017FC00F0D39062EDE094809062ECE094004006AF
:07180C00E4F0A37480F02258
:03004B00021A4A4C
:101A4A00C0E0C083C082C0D075D000C004C007E522
:041A5A00D430E50B94
:0B1A5E00906358E5D7F0E0FF1217BCC2
:0D1A6900D007D004D0D0D082D083D0E0329E
:100CA2005541525420726563656976652074696D99
:100CB200656F75742C2063757272656E742073741F
:100CC200617475733A2025750A004275666665720D
:100CD20020636F6E74656E743A200A003078253096
:100CE200327820000A007265637620737461206591
:100CF20072720A00427974652070726F6365737351
:100D0200696E67206661696C65640A0063757220AA
:100D12007561727420726563656976657220737499
:100D2200617475733A20253032640A007265637605
:100D320020636D643A20646576206F6E0A007265E6
:100D4200637620636D643A20646576206F66660A76
:100D5200007265637620636D643A20706169720A7D
:100D6200007265637620636D643A2063616E636529
:100D72006C2070616972696E670A00726563762021
:100D8200636D643A2073657420636F6C6F720A003E
:100D92007265637620636D643A20736574206272B3
:0E0DA200696768746E657373206C65760A006D
:101AFD00E490636EF07404A3F0E490632D227BFFF9
:0E1B0D00906370E0FF906331E4F0A3EFF022EC
:101BA000E490636DF0906371F0A3F0A3F090637024
:021BB000F02221
:101A9A00906371E0601BC3906373E094FF9063727C
:101AAA00E094FF500CA3E004F07006906372E00427
:021ABA00F02218
:10175C00C3906373E094D0906372E0940740507A26
:10176C000C79A2121B0B1200B97BFF7A0C79CC12EC
:10177C0000B9E490632CF090636DE0FF90632CE073
:10178C00FEC39F501E7BFF7A0C79DE74592EF582B6
:10179C00E43463F583121B101200B990632CE0043F
:0F17AC00F080D47BFF7A0C79E61200B9121BA0F3
:0117BB00220B
:050DB00090632CEFF040
:100DB500A37401F0906370E014602314602D146037
:100DC50037146042147003020E6024056003020E9E
:100DD5007E90632CE0644A6003020E878025906351
:100DE5002CE064596003020E87801890632CE06440
:100DF5004D6003020E87800B90632CE06443600313
:100E0500020E87A3805290632CE024EC601824E83E
:100E1500602014602224F8602324FD602E242570B0
:100E250061121AFD8032E490636EF07403121B04A4
:100E35008026121AFD8021121AFD801CE490636E33
:100E4500F0A37406F0E490632D800DE490636EF0DA
:100E5500A37405F0E490632DF08016E490632DF003
:100E650090636EE004F0A3E0FF90636EE0C39F40E3
:100E750011906370E004F080097BFF7A0C79E81229
:100E850000B990632DE0FF701A90632CE0FE90632B
:100E95006DE02459F582E43463F583EEF090636DDB
:030EA500E004F076
:010EA8002227
:10111900906371E0600312175C121C26EF4E604465
:10112900906370E06406603C12186490632AEFF0E3
:101139009063717401F0E4A3F0A3F090632AE0FFD7
:10114900120DB0EF60D3906370E060137BFF7A0CEF
:1011590079F61200B97A0D790E121B0B1200B91229
:101169001BA080B5906370E06406704F90635DE0EA
:1011790024EC601B24E8601F14602424F8602824F0
:10118900FD602C242570317BFF7A0D792E80267B1A
:10119900FF7A0D7940801E7BFF7A0D795380167B8B
:1011A900FF7A0D7963800E7BFF7A0D797D80067B4E
:0B11B900FF7A0D79921200B9121BA002
:0111C4002208
:050A5000426374000088
:1018130090637CE0FEA3E0FF7C001207FEE47B64A0
:10182300FAF9F812070B90637CEEF0A3EFF09063E4
:101833007EE0FEA3E0FF7C0022906378E0FEA3E05D
:10184300FF2290637AE0FEA3E0FF22906381E09F92
:10185300906380E09E22906383E09F906382E09E8A
:011863002262
:101B67009063767402F0A314F09063857404F09088
:051B7700638404F0226C
:0C1BF20090639EEFF0A3ECF0A3EDF02256
:091C2F009063A3EEF0A3EFF02294
:060045009063A5EFF0221C
:100B9100906385E014602914603C14604F14605F19
:100BA10014607224056003020CA190637C7406F04A
:100BB100A37418F090637E7413F0A37474F08066CC
:100BC10090637C740FF0A3743CF090637E740AF020
:100BD100A3748CF0805090637C7413F0A37438F08C
:100BE10090637E7405F0A374DCF0803A90637C74AA
:100BF10017F0A37470F0E490637EF0A3F080279067
:100C0100637C7409F0A374D8F090637E740FF0A331
:100C1100743CF08011E490637CF0A3F090637E74E7
:100C210017F0A37470F0906384E014601A146021CB
:100C310014602E14603A146046240570637D051219
:100C410018137D05020C8D7D0A1218137D0A020C02
:100C51008D90637C1218347D1912181D7D19020CB8
:100C61008D90637C1218347D3212181D7D32801CE8
:100C710090637C1218347D4B12181D7D4B800D90B2
:100C8100637C1218347D6412181D7D641207FEE422
:100C91007B64FAF9F812070B90637EEEF0A3EFF094
:010CA1002230
:10145100906375E004F07006906374E004F0C3904B
:101461006375E09414906374E094004073E4F0A316
:10147100F0200E6C12183CD312184E401090637974
:10148100E004F0701F906378E004F0801712183CBC
:10149100C312184E500E906379E024FFF0906378E8
:1014A100E034FFF0121845D3121859401090637BB5
:1014B100E004F0701F90637AE004F0801712184581
:1014C100C3121859500E90637BE024FFF090637AA9
:1014D100E034FFF012183C121C14121845121C1DA6
:0114E10022E8
:1014EE00021317E493A3F8E493A34003F68001F2EA
:1014FE0008DFF48029E493A3F85407240CC8C333FF
:10150E00C4540F4420C8834004F456800146F6DFCD
:10151E00E4800B01020408102040809008C9E47E8C
:10152E00019360BCA3FF543F30E509541FFEE493C2
:10153E00A360010ECF54C025E060A840B8E493A389
:10154E00FAE493A3F8E493A3C8C582C8CAC583CAB4
:10155E00F0A3C8C582C8CAC583CADFE9DEE780BE6C
:010A550000A0
:1006CF0075F008758200EF2FFFEE33FECD33CDCCE2
:1006DF0033CCC58233C5829BED9AEC99E582984065
:1006EF000CF582EE9BFEED9AFDEC99FC0FD5F0D642
:1006FF00E4CEFBE4CDFAE4CCF9A88222B800C1B96C
:10070F000059BA002DEC8BF084CFCECDFCE5F0CBA9
:10071F00F97818EF2FFFEE33FEED33FDEC33FCEBE2
:10072F0033FB10D703994004EB99FB0FD8E5E4F99D
:10073F00FA227818EF2FFFEE33FEED33FDEC33FC8A
:10074F00C933C910D7059BE99A4007EC9BFCE99A7E
:10075F00F90FD8E0E4C9FAE4CCFB2275F010EF2FC3
:10076F00FFEE33FEED33FDCC33CCC833C810D707C3
:10077F009BEC9AE899400AED9BFDEC9AFCE899F8FE
:0E078F000FD5F0DAE4CDFBE4CCFAE4C8F92291
:10079D00EB9FF5F0EA9E42F0E99D42F0E89C45F0B2
:0107AD002229
:1007AE00E8600FECC313FCED13FDEE13FEEF13FF29
:0307BE00D8F1224D
:0C07C100ECF0A3EDF0A3EEF0A3EFF022AB
:1007CD00A8828583F0D083D0821207E41207E41249
:1007DD0007E41207E4E473E493A3C583C5F0C5836E
:1007ED00C8C582C8F0A3C583C5F0C583C8C582C876
:0107FD0022D9
:1007FE00EC8EF0A4CCC5F0CCCDF8EFA4CEC5F02D88
:10080E00FDE43CFCE8A42EC8C5F03DFDE43CFCEF45
:0D081E00A4FFE5F028FEE43DFDE43CFC22D3
:10004E00E5082431F582E43463F583E00508229057
:10005E00632E300703906331E475F00112088302BA
:10006E00082B2000E97F2ED2008018EF540F249029
:10007E00D43440D4FF30040BEF24BFB41A00500325
:10008E002461FFE50960021509050CE50C700205F7
:10009E000B30070E90632EE475F001120883EF0209
:1000AE000871021C407403D2078003E4C207F508EE
:1000BE0090632E12089AE4F509F50BF50CE509602C
:1000CE00077F2012009180F5750AFFC201C200C29F
:1000DE0002C203C205C206C20812005DFF700D30D7
:1000EE0007057F001200A2AF0CAE0B22B4255FC233
:1000FE00D5C20412005DFF24D0B40A00501A75F068
:10010E000A780930D50508B6FF0106C6A426F620E2
:10011E00D5047002D20380D924CFB41A00EF500454
:10012E00C2E5D2040202A3D20180C6D20080C0D2A0
:10013E000280BCD2D580BAD20580B47F2012009145
:10014E002002077401B5090040F112004EFF1200A3
:10015E00910200CBD208D206809512004EFB1200FF
:10016E004EFA12004EF94A4B700679747A037BFFF1
:10017E0020022EE509602A7E008E82758300120809
:10018E004460060EEE650A70F0C2D5EBC0E0EAC020
:10019E00E0E9C0E0EE1202EAD0E0F9D0E0FAD0E0F9
:1001AE00FB12082BFF60AAEBC0E0EAC0E0E9C0E05A
:1001BE00120091D0E02401F9D0E03400FAD0E0FB37
:1001CE00E50A0460DCD50AD980877BFF7A0279E6DE
:1001DE00D202809C791080027908C206C20880087B
:1001EE00D2D5790A8004790AC2D5E50A047002F5DF
:1001FE000AE4FAFDFEFF12004EFC7B0820011312EA
:10020E00004EFD7B1030000A12004EFE12004EFF13
:10021E007B20EC3382D592D55013C3E43000069F79
:10022E00FFE49EFEE42001039DFDE49CFCE4CBF87C
:10023E00C201EC700CCFCECDCCE824F8F870F38070
:10024E0017C3EF33FFEE33FEED33FDEC33FCEB3330
:10025E00FB994002FB0FD8E9EB300105F8D0E0C462
:10026E0048B201C0E00AEC4D4E4F78207B0070C2C0
:10027E00EAB50A0040BCC0E01202ECD0F0D0E0209B
:10028E000104C4C0E0C4B201C0F012007AD0F0D5AF
:10029E00F0EB0200CB1208A301685301E2580139BA
:1002AE004C01354201E64F01EE4401EE49014E4349
:0802BE0001F45501D84601D8F6
:1002C6004501D847039450013D2D01412E01642B71
:1002D600014523016220037D2A00FD480000015CE0
:1002E6003F3F3F00790AA2D5200314300509B91013
:1002F600020404B9080104A2D52006025001042014
:1003060002689202B509005034C0E07F203003191C
:100316007F30A20272067205500F120343C202C258
:1003260006C205C2087F30800F300503E9C0E0121F
:100336000091300503D0E0F9D0E0B509CC300517BF
:100346007F30B9100C1200917F583004077F7880F7
:1003560003B908031200913002057F2D0200917F38
:10036600202008F87F2B2006F322920280CF286EE9
:10037600756C6C2900D20112004E3001F8C201786A
:100386000930D50108F60200FD2D504349581200E8
:100396004E2403B405004001E490038F93120082BB
:0D03A600743A120082D2037509040201E2CC
:10082B00BB010689828A83E0225002E722BBFE02CB
:09083B00E32289828A83E49322FE
:10084400BB010CE58229F582E5833AF583E0225069
:1008540006E92582F8E622BBFE06E92582F8E222B3
:0D086400E58229F582E5833AF583E49322CD
:10087100BB010689828A83F0225002F722BBFE0166
:02088100F32260
:10088300F8E0FBA3A3E0F925F0F0E58215827002FE
:070893001583E0FA38F022A2
:09089A00EBF0A3EAF0A3E9F0225F
:1008A300D083D082F8E4937012740193700DA3A3E4
:1008B30093F8740193F5828883E4737402936860F8
:0608C300EFA3A3A380DFF8
:00000001FF
