:03000000021AB72A
:0C1AB700787FE4F6D8FD758123021AFE4A
:0C000300000000000000000000000000F1
:0B226C00EF1FAC0670011E4C70F62244
:10002A00AB07AA06EB1BAE0270011A4E60097FAA43
:08003A007E0512226C80ED220C
:10153500907120E04480F07F057E0012226CE4FF6C
:10154500FE12002A75A75575AC589071327450F08B
:101555009071307403F0907136742FF07F18EF247A
:1015650066FDE434718D82F583E4F00FEFB433EE5C
:10157500904011E4935407FF90711CE054F84FF02C
:10158500904017E493547FFF90711DE054804FF015
:10159500904010E493FF5401C43333335480FE90DC
:1015A5007123E0547F4EF0EFC313543F4440FFA333
:1015B500E054804FF0904012E493FF540FFE907179
:1015C50046E054F04EF0EFC4540FFF90714FE054D5
:1015D500F04FF0904013E493543FFF907140E05476
:1015E500C04FF0904014E493907126F0904015E4BC
:0E15F50093907128F0904016E49390712AF0C4
:0116030022C4
:0B2277007379732072657365740A00B0
:08229D007417F0A37470F02225
:101A200075D9DD12153575D95590715EE054FEF00B
:101A300075D9BB1220B11222007BFF7A227977126E
:101A400000B978E3E254CFF2E24410F2907194E4EA
:101A5000F01221AB1221DC12219012198312217095
:101A600012214F1221EE78D3E254FCF2E24401F24B
:101A700090718AE4F0C2949063C412229D9063C076
:101A800012229D9063C212229D12137A9063A5E0E8
:101A9000FEA3E0FF121C539063A9EEF0A3EFF090B9
:101AA00063A7E0FEA3E0FF121C539063ABEEF0A32C
:071AB000EFF012160480D5CF
:0F0BF8004263C017704263C217704263C4177024
:101EDA00FFE0FCA3E0FD120B2DE47B707A17F9F802
:101EEA00120A3A9062F4EEF0A3EFF09062F4E0FE88
:101EFA00A3E0FFC39062F3E09F9062F2E09E22901B
:101F0A0062F0E0FEA3E022AC06ECF218EFF27817DA
:021F1A00E222C1
:101983007812E24401F278567407F278277417F25A
:1019930018746FF27833E4F218F27819E24401F222
:1019A3007811E24401F27817E24401F27812E2443A
:1019B30001F27814E24401F27818E24401F278D398
:1019C300E254CFF2E24410F290718C740AF0781270
:1019D300E24402F278577407F278297417F2187404
:1019E3006FF27837E4F218F27819E24402F27811D0
:1019F300E24402F27817E24402F27812E24402F27D
:101A03007814E24402F27818E24402F278C3E25412
:0D1A1300F3F2E24404F29071837409F022B2
:092282007833121F114401F2220D
:09228B007837121F114402F222FF
:0C2254007818E230E0037F01227F0022B6
:0C2260007818E230E1037F01227F0022A9
:0D2220007818E24401F290718C740AF022EB
:0E000F0090718CE4F0D2967818E254FEF22242
:0D222D007818E24402F29071837409F022E7
:0E221200907183E4F0D2857818E254FDF22238
:081C53009062F0EEF0A3EFF047
:101C5B00A3EEF0A3EFF09063C0E064177004A3E071
:101C6B0064706010121F099063C0121EDA4005EEFB
:101C7B00F0A3EFF09063C2E064177004A3E064700C
:101C8B006010121F099063C2121EDA4005EEF0A31A
:101C9B00EFF09063C4E064177004A3E0647060110C
:101CAB00121F09FF9063C4121EDB4005EEF0A3EF79
:091CBB00F09062F2E0FEA3E0FFEC
:011CC40022FD
:100C070041637800C11741637A004163790041630A
:100C1700550060206356FFFF000000000000000041
:100C270000000000000000000000000000000000BD
:100C370000000000000044635100000000416343CE
:100C470000416344004163450041634600446347F4
:0E0C57000000000042634B000042634DFFFFAF
:101F1C007FEA7E0B9063CCFDFCE0F8A3E0F9A3E034
:101F2C00FAA3E0FB22F0E0441EF09071227407F05B
:101F3C0022E0FF906319E09F906318E09E2290636B
:101F4C0046E0C3941422E0FCA3E0FDA3E0FEA3E072
:011F5C002262
:1021AB0078F2E24403F278E3E244C0F278F2E244DC
:0921BB000CF278D2E244C0F222D9
:1021DC0043AA04D2AF786AE24479F27F017E00020E
:0221EC00002AC7
:101F5D00EF24FE60191460242402702C907123E08C
:101F6D0054D8F0E0441D121F35759917801A9071E1
:101F7D0023E054F8121F31759918800C907123E0ED
:0F1F8D0054D8121F3175990B7869E24448F2223B
:1021C40090634FE0FEA3E0FF7C007D0C120B2DE436
:0821D4007B0AFAF9F8020A3A4D
:101FDA00906378E0B4012874FFFFFE906351121FEA
:101FEA0023C3120ACC5022906351121F522401FFBC
:101FFA00E43EFEE43DFDE43CFC906351020AF090AD
:0A200A006351120AFC0000000022DE
:101831009063CC120AFC00000000906378E064021F
:0518410070030218DA3B
:10184600906343E004F0E0C3946450030218DAE4C2
:01185600F0A1
:0F1857001221C49063CC120AF0906378E0702CD9
:10186600121F1CC3120ACC5008906344E004F08097
:1018760005E4906344F0906344E0C3940AE44007AF
:0C188600F090637804F022906378F02268
:10189200906378E0640170407F307E75FDFC906358
:0A18A20051121F25C3120ACC402E7C
:1018AC00E4121F1C120ACC5008906345E004F0802F
:1018BC0005E4906345F0906345E0C3940A4009E465
:0E18CC00F09063787402F0229063787401F05B
:0118DA0022EB
:10207F00906378E07008301628C2160203B390639D
:10208F0078E0B4010B9063C0740BF0A374B8F02226
:10209F00906378E0B4020A9063C07405F0A374DC17
:0220AF00F0221D
:101F9C0090637DE0FEA3E0FF90637AE0701AD3EFCC
:101FAC009420EE940E5004D2178002C2179063C492
:101FBC007417F0A37470F022C3EF94C8EE940E4023
:0D1FCC0002C2179063C47405F0A374DCF02A
:011FD90022E5
:03004200020EE9C2
:100EE900C0E0C0F0C083C082C0D075D000C000C0CF
:100EF90001C002C003C004C005C006C007786BE288
:060F090020E103021009C3
:100F0F00AF93EF75F010A4FFE594C4540FFDEF4DB0
:100F1F00FF906318E5F0F0A3EFF0E24402F2906364
:090F2F0079E064026003020FE0A6
:100F3800121F4A5067E004F0E0C3940240539063E4
:100F48004BE0FEA3D3121F3D400CE0FFA3E09063EB
:100F58004BCFF0A3EFF090634DE0FEA3C3121F3D0B
:100F6800500CE0FFA3E090634DCFF0A3EFF0906347
:100F780047121F25906318E0FEA3E0FFE4FCFDEB99
:100F88002FFFEA3EFEED39FDEC38FC906347120A6C
:100F9800F0121F4A50067869E24401F2121F4A40D3
:100FA80060A3121F52FF7804120ADD906376EEF0F8
:100FB800A3EFF09063797403F0906346E4F09063D4
:100FC8004BF0A3F090634D74FFF0A3F090634712C9
:060FD8000AFC000000000D
:100FDE008029906379E0B4050C906318E0FFA3E0DC
:100FEE0090634F8011906379E0B4070F906318E01F
:0B0FFE00FFA3E090637DCFF0A3EFF0B5
:10100900D007D006D005D004D003D002D001D0003B
:0B101900D0D0D082D083D0F0D0E032E5
:0A0C65004263D000004263D2000099
:1021900043A820D2AF75D10178957401F2187476F6
:0B21A000F2789174A0F21874FDF22296
:03001E000218DBEA
:1018DB00C0E0C0F0C083C082C0D075D000C000C0D3
:1018EB0001C002C003C004C005C006C0077891E266
:0918FB0030E76AE24480F2D218E1
:1019040030172F9063D3E004F070069063D2E004A4
:10191400F09063D0E4F0A3F0C39063D3E0943290EA
:1019240063D2E094004037E4F0A3F090637A04F0CB
:10193400802C9063D1E004F070069063D0E004F052
:101944009063D2E4F0A3F0C39063D1E09440906339
:0E195400D0E0941F4008E4F0A3F090637AF016
:10196200121FDA12212DD007D006D005D004D003E1
:10197200D002D001D000D0D0D082D083D0F0D0E03D
:011982003232
:0B0C6F00C113C1144263C60000C11293
:1021700043A901D2AF75D104907105E4F0907104C8
:102180007424F090710174A0F090710074FDF0223D
:03002400021B4379
:101B4300C0E0C0F0C083C082C0D075D000C000C068
:101B530001C002C003C004C005C006C007907101E4
:101B6300E030E74DE04480F09063C9E004F0700694
:101B73009063C8E004F09063CBE004F070069063D8
:101B8300CAE004F0C39063CBE0940D9063CAE09481
:101B9300004006E4F0A3F0D214C39063C9E0940DAF
:101BA3009063C8E094004006E4F0A3F0D21312203F
:101BB3004AD007D006D005D004D003D002D001D03C
:0C1BC30000D0D0D082D083D0F0D0E0322F
:1021EE0078D2E254CFF2E24410F2907188E4F0C259
:0221FE0092222B
:10210900C39063A2E094589063A1E094025012C373
:102119009063A4E094589063A3E094025003D29290
:0421290022C292221A
:040C7A004163D501FC
:0722AD007869E24401F2220E
:10214F0043A902D2AF75D10890710D7401F090714F
:10215F000C745DF090710974A0F090710874FDF02B
:01216F00224D
:0300270002145C64
:10145C00C0E0C0F0C083C082C0D075D000C000C056
:10146C0001C002C003C004C005C006C007907109CA
:0E147C00E020E70302151A907109E04480F0A9
:10148A009063D4E004F0E0C39408400AA3E0600645
:10149A00E4F0906379F09063D4E0C3940A4007E4DF
:0614AA00F0D216A304F0CD
:1014B000906379E06004E0B4070D7F01121F5D9036
:1014C00063797401F08053906379E0B401081222CB
:1014D000AD7402F08044906379E0B4030D7F021292
:1014E0001F5D9063797404F08030906379E0B404F8
:1014F000081222AD7405F08021906379E0B4050DE7
:101500007F03121F5D9063797406F0800D906379FC
:10151000E0B406061222AD7407F0D007D006D0055D
:10152000D004D003D002D001D000D0D0D082D0835C
:05153000D0F0D0E03214
:100C7E004260030000426265000042626310004160
:100C8E0062670060406005FFFF000000000000008A
:100C9E000000000000000000000000000000000046
:100CAE000000000000000000000000000000000036
:100CBE000000000000000000000000000000000026
:100CCE000000000000000041600000416001004192
:050CDE00600200C115D9
:101BCF007F8BE47E06FDFC9063B0E0F8A3E0F9A301
:101BDF00E0FAA3E0FB22EF25E0FFEE33FE74472F80
:101BEF00F58274603EF58322D39063C3E094B8907E
:101BFF0063C2E0940B22ECF0A3EDF09063B7E00426
:101C0F00F0229063B6E0FEA3E0FFC322906000E0F5
:101C1F0025E02405F582E43460F58322E49063B671
:101C2F00F0A3F02233FE74052FF58274603EF58326
:101C3F00229063B6E004F0229063B7E025E0FF90B6
:041C4F0063B6E02276
:1003B3009063B0120AFC00000000906376E0FFA394
:1003C300E09063B4CFF0A3EFF0906005E0F4700326
:0503D300A3E0F47049F5
:1003D800121C2C121C119420EE9400501A9063B435
:1003E800E0FCA3E0FDEF25E0FFEE121C33121C0534
:1003F80070E1121C4080DC121C2B121C11940EEEB2
:100408009401505E9063B4E0FCA3E0FD121BE5127A
:090418001C0570E6121C4080E195
:10042100121C1BE0FFA3E09063B6CFF0A3EFF090A6
:1004310063B4E0FEA3E0FF9063B7E02FF09063B6F2
:10044100E03EF0E0C313FEA3E013FF9063B6EEF0CD
:10045100A3EFF0121C1BEEF0A3EFF0906000E0049C
:09046100F0E0C394204002E4F035
:10046A00121C2B121BD6121C47121C33E0FEA3E0EF
:10047A00FFE4FCFDEB2FFFEA3EFEED39FDEC38FC14
:10048A009063B0120AF0121C0A7003121C409063A7
:10049A00B6E07004A3E0642070C99063B0E0FCA3E6
:1004AA00E0FDA3E0FEA3E0FF7805120ADD9063B049
:0304BA00120AF033
:1004BD009063B0A3A3E0FEA3E0FDAC06906046E020
:1004CD0025E0FF906045E033FE74472FF5827460A0
:1004DD003EF583ECF0A3EDF0906046E004F070067D
:1004ED00906045E004F0C3906046E0940E90604546
:0904FD00E094014004E4F0A3F0D6
:10050600121C2B906265F0A3F09062637410F0A346
:10051600E4F0121C11940EEE940140030205AE1293
:100526001BE5E0FCA3E0FD906265E0FAA3E0FBD3E7
:10053600ED9BEC9A400F121BECE0FFA3E090626586
:10054600CFF0A3EFF0121C47121BEAE0FCA3E0FD7C
:10055600906263E0FAA3E0FBC3ED9BEC9A500F12A6
:100566001BECE0FFA3E0906263CFF0A3EFF0906294
:1005760063E0FEA3E0FFC3906266E09FFF906265C2
:10058600E09EFED3EF9450EE9400400890626774AC
:100596001EF08009906267E06003E014F0121C0A06
:0805A6007003121C400205184D
:1005AE00121BCFC3120ACC500B301568121BCF1280
:1005BE000ACC4060E4906001F0A3F0D2159062671F
:1005CE00E0B41E20E014F0121BF7400CA3E024FF51
:1005DE00F09063C2E034FFF0C3121BF84003020632
:1005EE00CE02067B906267E060030206CE20130304
:1005FE000206CEC213C39063C3E094709063C2E050
:10060E00941740030206CEA3E004F070069063C276
:10061E00E004F022E47FC37E05121BD4D3120ACC71
:10062E0040537F6D121BD1D3120ACC40089060014B
:10063E00E0640470402014030206CEC214906001E0
:10064E00E0C394045003E004F0E4906002F0C2159D
:10065E00121BF740028053C3121BF8500DA3E00487
:10066E00F070069063C2E004F0229063C2740BF047
:10067E00A374B8F022E47FC37E05121BD4D3120AF2
:10068E00CC4006906002E06037301434C2149060A3
:10069E00027401F0E4906001F0C215D39063C3E0E0
:1006AE0094089063C2E09407400DA3E024FEF090FE
:1006BE0063C2E034FFF0229063C27407F0A304F02B
:0106CE002209
:100CE300C1184463B8000000004463BC0000000066
:101D30009063B8E0FCA3E0FDA3E0FEA3E022E47F13
:101D4000E87E03FDFCE0F8A3E0F9A3E0FAA3E0FBE2
:101D5000C3020ACC94E8FFEE9403FEED9400FDEC80
:101D60009400FC020AF0FFEE3401FEE43DFDE43C89
:101D7000FC020AF0C39063A2E094D89063A1E094BF
:0F1D800009229063A4E0943C9063A3E0940F22A7
:10137A00E49063A1F0A3F09063A3F0A3F09063A0BC
:10138A0004F09063A97409F0A374D8F09063AB7465
:10139A000FF0A3743CF0121D744008121D82400322
:1013AA0002142C301863C218121D30243B9063B803
:1013BA00121D669063B8121D3E401A121D309063CA
:1013CA00B8121D54121D74500CA3E004F07006905C
:1013DA0063A1E004F09063BC121D3324E79063BC60
:1013EA00121D669063BC121D3E401E9063BC121D06
:1013FA00339063BC121D54C3121D82500CA3E00427
:10140A00F070069063A3E004F09063A1E0FEA3E00D
:10141A00FF1222829063A3E0FEA3E0FF12228B0256
:10142A0013A09063A1E0FFA3E09063A5CFF0A3EF20
:10143A00F09063A3E0FFA3E09063A7CFF0A3EFF0DF
:10144A009063A07402F09063AE7404F09063AD04EC
:01145A00F0A1
:01145B00226E
:100CF3006086626800000000000000000000000041
:100D030000000000000000000000000000000000E0
:100D130000000000000000000000000000000000D0
:100D230000000000000000000000000000000000C0
:100D330000000000000000000000000000000000B0
:100D430000000000000000000000000000000000A0
:100D53000000000000000000000000000000000090
:100D63000000000000000000000000000000000080
:0A0D73000000000000000000000076
:0822A500E5D430E4FB8FD722E1
:1020B10078C2E254FCF2E24401F290717EE0440401
:1020C100F078E3E254F3F29071757416F075D6016D
:0C20D10075D59F75D21143AA20D2AF2212
:092294009062ECE0FEA3E0FF22E1
:101E8C009062ECE07002A3E07002FF229062EBE043
:101E9C0004F070069062EAE004F0C39062EBE09408
:101EAC00809062EAE094004004E4F0A3F09062EACF
:101EBC00E0FEA3E02468F58274623EF583E0FF90B7
:0D1ECC0062EDE024FFF09062ECE034FFF0E6
:011ED90022E6
:101D8F009062E9E004F070069062E8E004F0C3901E
:101D9F0062E9E094809062E8E094004004E4F0A3EC
:101DAF00F09062E8E0FCA3E02468F58274623CF5F1
:101DBF0083EFF09062EDE004F070069062ECE004C7
:101DCF00F0D39062EDE094809062ECE094004006D6
:071DDF00E4F0A37480F02280
:03004B000220DDB3
:1020DD00C0E0C083C082C0D075D000C004C007E589
:0420ED00D430E50BFB
:0B20F100906342E5D7F0E0FF121D8F66
:0D20FC00D007D004D0D0D082D083D0E03205
:1006CF005541525420726563656976652074696D72
:1006DF00656F75742C2063757272656E74207374F8
:1006EF00617475733A2025750A00427566666572E6
:1006FF0020636F6E74656E743A200A00307825306F
:10070F00327820000A0066756E63203A2075617298
:10071F00745F636D645F706169725F68616E646C52
:10072F00650A0066756E63203A20756172745F63A7
:10073F006D645F63616E63656C5F70616972696E32
:10074F00675F68616E646C650A0066756E63203A58
:10075F0020756172745F636D645F7365745F636F3F
:10076F006C6F725F68616E646C650A00756172749C
:10077F005F72656365697665722E726563765F6C0D
:10078F00656E203D3D2025750A006572720A007363
:10079F00657420636F6C6F722074656D702069646F
:1007AF007820310A0073657420636F6C6F72207448
:1007BF00656D702069647820320A00736574206358
:1007CF006F6C6F722074656D702069647820330AC6
:1007DF000073657420636F6C6F7220746F20626C8E
:1007EF0075650A0073657420636F6C6F7220746F88
:1007FF00206379616E0A0073657420636F6C6F728A
:10080F0020746F20677265656E0A007365742063CC
:10081F006F6C6F72206D6F6465206572720A00666F
:10082F00756E63203A20756172745F636D645F73D8
:10083F0065745F6272696768746E6573735F6C6508
:10084F00765F68616E646C650A007365742062720E
:10085F00696768746E657373206C657620310A0062
:10086F00736574206272696768746E657373206C48
:10087F00657620320A007365742062726967687446
:10088F006E657373206C657620330A007365742070
:10089F006272696768746E657373206C6576203455
:1008AF000A00736574206272696768746E6573738A
:1008BF00206C657620350A00736574206272696753
:1008CF0068746E657373206C657620360A00427902
:1008DF0074652070726F63657373696E67206661EC
:1008EF00696C65640A006375722075617274207299
:1008FF0065636569766572207374617475733A20E8
:10090F00253032640A007265637620636D643A2085
:10091F00646576206F6E0A007265637620636D647E
:10092F003A20646576206F66660A007265637620EA
:10093F00636D643A20706169720A00726563762094
:10094F00636D643A2063616E63656C2070616972D8
:10095F00696E670A007265637620636D643A20736F
:10096F00657420636F6C6F720A0072656376206323
:10097F006D643A20736574206272696768746E657E
:08098F007373206C65760A0009
:101E3B007BFF7A07790B747F2EF582E43463F5838D
:101E4B00E0FF90631DE4F0A3EFF022906394E004B5
:101E5B00F0A3229063A0E090639FF0A37403F0E4DF
:101E6B009063AFF022E0247FF582E43463F58322A4
:101E7B007409F0E4F9A3227BFF7A07797B906394D2
:011E8B002234
:10220000E4906393F0A3F0A3F0A3F0A3F0A3F0A3F2
:02221000F022BA
:10212D00906397E0601BC3906399E094FF90639870
:10213D00E094FF500CA3E004F07006906398E00467
:02214D00F0227E
:101DE600C3906399E094D0906398E0940740457B54
:101DF600FF7A0679CF906396121E4B1200B97BFFCD
:101E06007A0679F91200B9E49062EFF0906393E0F4
:101E1600FF9062EFE0FEC39F500E121E3B1200B908
:101E26009062EFE004F080E47BFF7A0779131200FA
:041E3600B9122200BB
:011E3A002285
:051024009062EFEFF007
:101029007901E49062F1F0906396E0146023146012
:101039002D14603714604C1470030210E624056007
:10104900030211379062EFE0644A600302113780AE
:10105900259062EFE06459600302113780189062AD
:10106900EFE0644D6003021137800B9062EFE0649A
:10107900436003021137F9906396E004F09063949A
:101089000211349062EFE024EC601F24E860271419
:10109900602D24F8603124FD603824256003021195
:1010A90037121E56121E7B021134121E567408F096
:1010B900E4F9A3021134121E56121E7B02113412D6
:1010C9001E56121E7B8064121E56740BF0E4F9A39F
:1010D9008059121E56740AF0E4F9A3804EE4F912FD
:1010E9001E56E0FF906394E0C39F4042E49062F093
:1010F900F0906394E014FF9062F0E0C39F5019A34D
:10110900E0FF9062F0121E70E0FEEF6E9062F1F067
:101119009062F0E004F080D99062EFE0FF9062F114
:10112900E06F600479018006906396E004F0E9704D
:10113900139062EFE0FF906393121E70EFF09063DB
:0611490093E004F0AF0189
:01114F00227D
:050045009063A0E02221
:0D223A007BFF7A0779151200B9121E5E2293
:0D2247007BFF7A0779321200B9121E5E2269
:101274007BFF7A0779591200B99063A0E06401609A
:1012840009906394E0C3940B5012121E82121E4BF9
:101294001200B97BFF7A0779990200B9906387E05D
:1012A400B4D316A3E0B442117BFF7A07799E1200EF
:1012B400B9E49063AEF0021364906387E0B47212F1
:1012C400A3E0B4A50D7A0779B41213687401F0028F
:1012D4001364906387E0B43F12A3E0B4D10D7A079E
:1012E40079CA1213687402F0021364906387E07081
:1012F40011A3E0B4FF0C7A0779E01213717403F0C0
:10130400805E906387E0B43F11A3E0B4A50C7A0734
:1013140079F31213717404F08046906387E0B4FF8C
:1013240015A3E070117BFF7A0879061200B9906367
:10133400AE7405F0802A7BFF7A08791A1200B9E4AA
:101344009062EFF0906394E0FF9062EFE0FEC39F41
:10135400500E121E3B1200B99062EFE004F080E4DC
:03136400120D8CDB
:10136700227BFF1200B99063AE227BFF1200B99077
:0313770063AE2240
:1016CB007BFF7A08792E1200B99063A0E064016069
:1016DB0009906394E0C3940A5012121E82121E4B9F
:1016EB001200B97BFF7A0779990200B9906386E003
:1016FB00B405107BFF7A0879591200B9E49063ADF9
:10170B00F08062906386E0B40A0C7A08796F121746
:10171B00747401F0804F906386E0B4190C7A0879E9
:10172B00851217747402F0803C906386E0B4320C1F
:10173B007A08799B12177D7403F08029906386E0F9
:10174B00B44B0C7A0879B112177D7404F0801690A3
:10175B006386E0B4640F7BFF7A0879C71200B990F7
:10176B0063AD7405F0120D8C227BFF1200B99063F0
:0B177B00AD227BFF1200B99063AD228D
:10160400906397E06003121DE6122294EF4E60414E
:10161400906396E064066039121E8CAD0790639760
:101624007401F0E4A3F0A3F0121024EF60DB9063E4
:1016340096E060187BFF7A0879DD1200B97BFF7AA7
:101644000879F5906396121E4B1200B9122200809D
:10165400B8906396E06406706D906383E024EC6058
:101664002124E8602814603324F8603D24FD604799
:101674002425704F7BFF7A0979151200B9120045B1
:1016840080417BFF7A0979271200B980367BFF7A83
:1016940009793A1200B912223A80287BFF7A097933
:1016A4004A1200B9122247801A7BFF7A0979641220
:1016B40000B9121274800C7BFF7A0979791200B98F
:0616C4001216CB122200F9
:0116CA0022FD
:102014006272656174682073746120696E69740A00
:10202400006272656174682070726F6772657373A1
:10203400203D2025750A0062726561746820666916
:062044006E6973680A00DA
:0E0D7D0041639A0042639B000042639D0000A8
:101786009063A5E0FEA3E0FF7C00120B2DE47B64D2
:10179600FAF9F8120A3A9063A5EEF0A3EFF0906317
:1017A600A7E0FEA3E0FF7C00229063A9E0FEA3E091
:1017B600FF90639BE0FCA3E0FD120B2DE47B887A8F
:1017C60013F9F8120A3A9063A1EEF0A3EFF09063D2
:1017D600ABE0FEA3E0FF90639BE0FCA3E0FD120BF1
:1017E6002DE47B887A13F9F8020A3A9063A1E0FEA9
:1017F600A3E0FF229063A3E0FEA3E0FF22C3906371
:10180600AAE09F9063A9E09E22C390639CE094881F
:1018160090639BE0941322EE9063A3F0A3EFF02273
:0B1826009063ACE09F9063ABE09E225B
:100D8C009063AEE014602914603C14604F14605FF3
:100D9C0014607224056003020EE89063A57406F0DB
:100DAC00A37418F09063A77413F0A37474F08066A6
:100DBC009063A5740FF0A3743CF09063A7740AF0D1
:100DCC00A3748CF080509063A57413F0A37438F066
:100DDC009063A77405F0A374DCF0803A9063A5745B
:100DEC0017F0A37470F0E49063A7F0A3F080279041
:100DFC0063A57409F0A374D8F09063A7740FF0A3E3
:100E0C00743CF08011E49063A5F0A3F09063A77498
:100E1C0017F0A37470F09063ADE014601A146021A5
:100E2C0014602E14603A146046240570637D05121C
:100E3C0017867D05020E887D0A1217867D0A020E22
:100E4C00889063A51217A77D191217907D19020EB1
:100E5C00889063A51217A77D321217907D32801CE3
:100E6C009063A51217A77D4B1217907D4B800D90A8
:100E7C0063A51217A77D641217907D64120B2DE4E5
:100E8C007B64FAF9F8120A3A9063A7EEF0A3EFF03C
:100E9C009063A5E0FEA3E0FF121C539063A9EEF053
:100EAC00A3EFF09063A7E0FEA3E0FF121C53906346
:100EBC00ABEEF0A3EFF09063A9E0FFA3E09063A189
:100ECC00CFF0A3EFF09063ABE0FFA3E0CF12181EBE
:0D0EDC001217F11222821217FA12228B2235
:101CC5001217F1D312180440109063A2E004F070CB
:101CD5001E9063A1E004F080161217F1121803504C
:101CE5000E9063A2E024FFF09063A1E034FFF012B0
:101CF50017FAD312182640109063A4E004F0701F61
:101D05009063A3E004F080171217FAC31218265047
:101D15000E9063A4E024FFF09063A3E034FFF0127B
:0B1D250017F11222821217FA02228B23
:101150009063AFE01470030211F1147003021214D3
:101160002402600302124CE490639AF0A3F0A3F00F
:101170009063A1E07002A3E0700A9063A3E07002A4
:10118000A3E060419063AF7402F09063ABE0FEA314
:10119000E0FF121803400F1217F17C137D8812092B
:1011A000979063A9800D1217FA7C137D8812099716
:1011B0009063ABE0FCA3E0FD1209A990639BEEF005
:1011C000A3EFF080069063AF7401F07BFF7A207983
:1011D000141200B97BFF7A20792590639BE0FFA36E
:1011E000E090631DCFF0A3EFF01200B9B2A6021297
:1011F0004C12180F500CA3E004F0700690639BE0B3
:1012000004F01217AF12181D12180F403F9063AF71
:101210007402802FD390639CE0940090639BE094D1
:1012200000400CA3E024FFF090639BE034FFF01239
:1012300017AF12181D90639BE07002A3E0700D9031
:1012400063AF04F090639AE004F0B2A690639AE072
:10125000C3940A4013E4F090639FE0A3F07BFF7A0D
:1012600020793B1200B9B2A61217F112228212178E
:04127000FA02228BD1
:10204A0090639EE004F0700690639DE004F0906354
:10205A00A0E024FE60051460188019C390639EE016
:10206A00941490639DE09400400AE4F0A3F0021CEB
:04207A00C51211502A
:01207E00223F
:101AC300021A20E493A3F8E493A34003F68001F2FF
:101AD30008DFF48029E493A3F85407240CC8C33324
:101AE300C4540F4420C8834004F456800146F6DFF3
:101AF300E4800B0102040810204080900BF8E47E80
:101B0300019360BCA3FF543F30E509541FFEE493E7
:101B1300A360010ECF54C025E060A840B8E493A3AE
:101B2300FAE493A3F8E493A3C8C582C8CAC583CAD9
:101B3300F0A3C8C582C8CAC583CADFE9DEE780BE91
:010D8B000067
:10099700EF8DF0A4A8F0CF8CF0A428CE8DF0A42E74
:0209A700FE222E
:1009A900BC000BBE0029EF8DF084FFADF022E4CC32
:1009B900F875F008EF2FFFEE33FEEC33FCEE9DECFB
:1009C900984005FCEE9DFE0FD5F0E9E4CEFD22ED41
:1009D900F8F5F0EE8420D21CFEADF075F008EF2F8B
:1009E900FFED33FD4007985006D5F0F222C398FD7C
:0509F9000FD5F0EA2219
:1009FE0075F008758200EF2FFFEE33FECD33CDCCB0
:100A0E0033CCC58233C5829BED9AEC99E582984032
:100A1E000CF582EE9BFEED9AFDEC99FC0FD5F0D60F
:100A2E00E4CEFBE4CDFAE4CCF9A88222B800C1B939
:100A3E000059BA002DEC8BF084CFCECDFCE5F0CB77
:100A4E00F97818EF2FFFEE33FEED33FDEC33FCEBB0
:100A5E0033FB10D703994004EB99FB0FD8E5E4F96B
:100A6E00FA227818EF2FFFEE33FEED33FDEC33FC58
:100A7E00C933C910D7059BE99A4007EC9BFCE99A4C
:100A8E00F90FD8E0E4C9FAE4CCFB2275F010EF2F91
:100A9E00FFEE33FEED33FDCC33CCC833C810D70791
:100AAE009BEC9AE899400AED9BFDEC9AFCE899F8CC
:0E0ABE000FD5F0DAE4CDFBE4CCFAE4C8F9225F
:100ACC00EB9FF5F0EA9E42F0E99D42F0E89C45F080
:010ADC0022F7
:100ADD00E8600FECC313FCED13FDEE13FEEF13FFF7
:030AED00D8F1221B
:0C0AF000ECF0A3EDF0A3EEF0A3EFF02279
:100AFC00A8828583F0D083D082120B13120B1312B1
:100B0C000B13120B13E473E493A3C583C5F0C583D5
:100B1C00C8C582C8F0A3C583C5F0C583C8C582C843
:010B2C0022A6
:100B2D00EC8EF0A4CCC5F0CCCDF8EFA4CEC5F02D55
:100B3D00FDE43CFCE8A42EC8C5F03DFDE43CFCEF13
:0D0B4D00A4FFE5F028FEE43DFDE43CFC22A1
:10004E00E50D241DF582E43463F583E0050D229061
:10005E00631A30100390631DE475F001120BB202A7
:10006E000B5A2009E97F2ED2098018EF540F2490E5
:10007E00D43440D4FF300D0BEF24BFB41A0050031C
:10008E002461FFE50E6002150E0511E511700205E3
:10009E001030100E90631AE475F001120BB2EF02DD
:1000AE000BA00222A57403D2108003E4C210F50D3A
:1000BE0090631A120BC9E4F50EF510F511E50E60FA
:1000CE00077F2012009180F5750FFFC20AC209C288
:1000DE000BC20CC20EC20FC21112005DFF700D30AA
:1000EE0010057F001200A2AF11AE1022B4255FC220
:1000FE00D5C20D12005DFF24D0B40A00501A75F05F
:10010E000A780E30D50508B6FF0106C6A426F620DD
:10011E00D5047002D20C80D924CFB41A00EF50044B
:10012E00C2E5D20D0202A3D20A80C6D20980C0D285
:10013E000B80BCD2D580BAD20E80B47F2012009133
:10014E00200B077401B50E0040F112004EFF120095
:10015E00910200CBD211D20F809512004EFB1200ED
:10016E004EFA12004EF94A4B700679747A037BFFF1
:10017E00200B2EE50E602A7E008E82758300120BF8
:10018E007360060EEE650F70F0C2D5EBC0E0EAC0EC
:10019E00E0E9C0E0EE1202EAD0E0F9D0E0FAD0E0F9
:1001AE00FB120B5AFF60AAEBC0E0EAC0E0E9C0E028
:1001BE00120091D0E02401F9D0E03400FAD0E0FB37
:1001CE00E50F0460DCD50FD980877BFF7A0279E6D4
:1001DE00D20B809C791080027908C20FC211800860
:1001EE00D2D5790A8004790AC2D5E50F047002F5DA
:1001FE000FE4FAFDFEFF12004EFC7B08200A1312DC
:10020E00004EFD7B1030090A12004EFE12004EFF0A
:10021E007B20EC3382D592D55013C3E43009069F70
:10022E00FFE49EFEE4200A039DFDE49CFCE4CBF873
:10023E00C20AEC700CCFCECDCCE824F8F870F38067
:10024E0017C3EF33FFEE33FEED33FDEC33FCEB3330
:10025E00FB994002FB0FD8E9EB300A05F8D0E0C459
:10026E0048B20AC0E00AEC4D4E4F78207B0070C2B7
:10027E00EAB50F0040BCC0E01202ECD0F0D0E02096
:10028E000A04C4C0E0C4B20AC0F012007AD0F0D59D
:10029E00F0EB0200CB120BD201685301E258013988
:1002AE004C01354201E64F01EE4401EE49014E4349
:0802BE0001F45501D84601D8F6
:1002C6004501D847039450013D2D01412E01642B71
:1002D600014523016220037D2A00FD480000015CE0
:1002E6003F3F3F00790AA2D5200C14300E09B91001
:1002F600020404B9080104A2D5200F02500104200B
:100306000B68920BB50E005034C0E07F20300C19FC
:100316007F30A20B720F720E500F120343C20BC234
:100326000FC20EC2117F30800F300E03E9C0E012FB
:100336000091300E03D0E0F9D0E0B50ECC300E17A8
:100346007F30B9100C1200917F58300D077F7880EE
:1003560003B90803120091300B057F2D0200917F2F
:10036600202011F87F2B200FF322920B80CF286ECE
:10037600756C6C2900D20A12004E300AF8C20A784F
:100386000E30D50108F60200FD2D504349581200E3
:100396004E2403B405004001E490038F93120082BB
:0D03A600743A120082D20C750E040201E2BE
:100B5A00BB010689828A83E0225002E722BBFE0299
:090B6A00E32289828A83E49322CC
:100B7300BB010CE58229F582E5833AF583E0225037
:100B830006E92582F8E622BBFE06E92582F8E22281
:0D0B9300E58229F582E5833AF583E493229B
:100BA000BB010689828A83F0225002F722BBFE0134
:020BB000F3222E
:100BB200F8E0FBA3A3E0F925F0F0E58215827002CC
:070BC2001583E0FA38F02270
:090BC900EBF0A3EAF0A3E9F0222D
:100BD200D083D082F8E4937012740193700DA3A3B2
:100BE20093F8740193F5828883E4737402936860C6
:060BF200EFA3A3A380DFC6
:00000001FF
