:030000000210CC1F
:0C10CC00787FE4F6D8FD75812002111336
:0C000300000000000000000000000000F1
:0B000F00EF1FAC0670011E4C70F622C3
:10002A00AB07AA06EB1BAE0270011A4E60097FAA43
:08003A007E0512000F80ED228B
:100CD500907120E04480F07F057E0012000FE4FF54
:100CE500FE12002A75A75575AC589071327450F0F4
:100CF5009071307403F0907136742FF07F18EF24E3
:100D050066FDE434718D82F583E4F00FEFB433EEC4
:100D1500904011E4935407FF90711CE054F84FF094
:100D2500904017E493547FFF90711DE054804FF07D
:100D3500904010E493FF5401C43333335480FE9044
:100D45007123E0547F4EF0EFC313543F4440FFA39B
:100D5500E054804FF0904012E493FF540FFE9071E1
:100D650046E054F04EF0EFC4540FFF90714FE0543D
:100D7500F04FF0904013E493543FFF907140E054DE
:100D8500C04FF0904014E493907126F0904015E424
:0E0D950093907128F0904016E49390712AF02C
:010DA300222D
:081988007417F0A37470F02243
:10142A0075D9DD120CD575D95590715EE054FEF070
:10143A0075D9BB12185212195B1218F31219371206
:10144A0018D8120FA11218B812189712194978D37E
:10145A00E254FCF2E24401F290718AE4F0C2949000
:10146A00637312198890636F121988906371121945
:10147A0088120B17120E4F1216961217841217E2C1
:05148A0012126880EF62
:0F036A0042636F177042637117704263731770AD
:10159300FFE0FCA3E0FD120631E47B707A17F9F853
:1015A30012053E906360EEF0A3EFF0906360E0FEFF
:1015B300A3E0FFC390635FE09F90635EE09E229091
:1015C300635CE0FEA3E022AC06ECF218EFF27817BE
:0215D300E22212
:100FA1007812E24401F278567407F278277417F246
:100FB10018746FF27833E4F218F27819E24401F20E
:100FC1007811E24401F27817E24401F27812E24426
:100FD10001F27814E24401F27818E24401F278D384
:100FE100E254CFF2E24410F290718C740AF078125C
:100FF100E24402F278577407F278297417F21874F0
:101001006FF27837E4F218F27819E24402F27811BB
:10101100E24402F27817E24402F27812E24402F268
:101021007814E24402F27818E24402F278D3E254EE
:0D103100F3F2E24404F290718B7409F02296
:09196D0078331215CA4401F2227C
:0919760078371215CA4402F2226E
:0812DE0090635CEEF0A3EFF059
:1012E600A3EEF0A3EFF090636FE064177004A3E041
:1012F600647060101215C290636F1215934005EE6C
:10130600F0A3EFF0906371E064177004A3E06470DB
:1013160060101215C29063711215934005EEF0A38A
:10132600EFF0906373E064177004A3E064706011DB
:101336001215C2FF9063731215944005EEF0A3EFE9
:09134600F090635EE0FEA3E0FFFD
:01134F00227B
:1003790041632300C10541632500416324004163B2
:10038900000060206301FFFF000000000000000082
:100399000000000000000000000000000000000054
:1003A9000000000000004462FC000000004162EE11
:1003B900004162EF004162F0004162F1004462F2E3
:0E03C900000000004262F600004262F8FFFFF2
:1015D5007FEA7E0B90635CFDFCE0F8A3E0F9A3E0F5
:1015E500FAA3E0FB22F0E0441EF09071227407F0AC
:1015F50022E0FF906365E09F906364E09E22906225
:10160500F1E0C3941422E0FCA3E0FDA3E0FEA3E017
:0116150022B2
:1018F30078F2E24403F278E3E244C0F278F2E2449D
:091903000CF278D2E244C0F22299
:1019370043AA04D2AF786AE24479F27F017E0002BB
:02194700002A74
:10165700EF24FE60191460242402702C907123E09B
:1016670054D8F0E0441D1215EE759917801A907141
:1016770023E054F81215EA759918800C907123E04D
:0F16870054D81215EA75990B7869E24448F2229B
:10190C009062FAE0FEA3E0FF7C007D0C120631E44D
:08191C007B0AFAF9F802053E0E
:10171100906323E0B4012874FFFFFE9062FC121570
:10172100DCC31205D050229062FC12160B2401FF7B
:10173100E43EFEE43DFDE43CFC9062FC0205F490D5
:0A17410062FC120600000000002206
:100E4F0090635C12060000000000906323E06402D0
:050E5F007003020EF813
:100E64009062EEE004F0E0C394645003020EF8E4F0
:010E7400F08D
:0F0E750012190C90635C1205F4906323E0702C4B
:100E84001215D5C31205D050089062EFE004F0802B
:100E940005E49062EFF09062EFE0C3940AE4400747
:0C0EA400F090632304F022906323F022FE
:100EB000906323E0640170407F307E75FDFC90629A
:0A0EC000FC1215DEC31205D0402E0F
:100ECA00E41215D51205D050089062F0E004F080C3
:100EDA0005E49062F0F09062F0E0C3940A4009E4FD
:0E0EEA00F09063237402F0229063237401F0F1
:010EF80022D7
:10178400906323E07008300428C20402004E906382
:1017940023E0B4010B90636F740BF0A374B8F022D0
:1017A400906323E0B4020A90636F7405F0A374DCC1
:0217B400F02221
:10169600906328E0FEA3E0FF906325E0701AD3EF85
:1016A6009420EE940E5004D2058002C20590637316
:1016B6007417F0A37470F022C3EF94C8EE940E4032
:0D16C60002C2059063737405F0A374DCF09C
:0116D30022F4
:0300420002065E55
:10065E00C0E0C0F0C083C082C0D075D000C000C062
:10066E0001C002C003C004C005C006C007786BE21B
:06067E0020E10302077EEB
:10068400AF93EF75F010A4FFE594C4540FFDEF4D44
:10069400FF906364E5F0F0A3EFF0E24402F29063AC
:0906A40024E06402600302075522
:1006AD001216035067E004F0E0C3940240539062C9
:1006BD00F6E0FEA3D31215F6400CE0FFA3E0906226
:1006CD00F6CFF0A3EFF09062F8E0FEA3C31215F69B
:1006DD00500CE0FFA3E09062F8CFF0A3EFF0906232
:1006ED00F21215DE906364E0FEA3E0FFE4FCFDEB87
:1006FD002FFFEA3EFEED39FDEC38FC9062F212055B
:10070D00F412160350067869E24401F21216034002
:10071D0060A312160BFF78041205E1906321EEF031
:10072D00A3EFF09063247403F09062F1E4F0906213
:10073D00F6F0A3F09062F874FFF0A3F09062F2125D
:06074D00060000000000A0
:100753008029906324E0B4050C906364E0FFA3E078
:100763009062FA8011906324E0B4070F906364E011
:0B077300FFA3E0906328CFF0A3EFF09D
:10077E00D007D006D005D004D003D002D001D000CF
:0B078E00D0D0D082D083D0F0D0E03279
:0A03D70042637B000042637D0000DA
:1018D80043A820D2AF75D10178957401F2187476B7
:0B18E800F2789174A0F21874FDF22257
:03001E00020EF9D6
:100EF900C0E0C0F0C083C082C0D075D000C000C0BF
:100F090001C002C003C004C005C006C0077891E251
:090F190030E76AE24480F2D206DE
:100F220030052F90637EE004F0700690637DE0044C
:100F3200F090637BE4F0A3F0C390637EE094329080
:100F4200637DE094004037E4F0A3F090632504F061
:100F5200802C90637CE004F0700690637BE004F0E8
:100F620090637DE4F0A3F0C390637CE094409063CF
:0E0F72007BE0941F4008E4F0A3F0906325F0AC
:100F8000121711121875D007D006D005D004D0035F
:100F9000D002D001D000D0D0D082D083D0F0D0E029
:010FA000321E
:0B03E100C101C1024263750000C100B1
:1018B80043A901D2AF75D104907105E4F090710489
:1018C8007424F090710174A0F090710074FDF022FE
:030024000211586E
:10115800C0E0C0F0C083C082C0D075D000C000C05D
:1011680001C002C003C004C005C006C007907101D9
:10117800E030E74DE04480F0906378E004F07006DA
:10118800906377E004F090637AE004F0700690636F
:1011980079E004F0C390637AE0940D906379E09469
:1011A800004006E4F0A3F0D202C3906378E0940D07
:1011B800906377E094004006E4F0A3F0D2011217A0
:1011C8004BD007D006D005D004D003D002D001D030
:0C11D80000D0D0D082D083D0F0D0E03224
:1019490078D2E254CFF2E24410F2907188E4F0C206
:021959009222D8
:10182E00C390634EE0945890634DE094025012C3FF
:10183E00906350E0945890634FE094025003D2921C
:04184E0022C29222FE
:0403EC0041638001E8
:071990007869E24401F22234
:1018970043A902D2AF75D10890710D7401F0907110
:1018A7000C745DF090710974A0F090710874FDF0EC
:0118B700220E
:03002700020BFCCD
:100BFC00C0E0C0F0C083C082C0D075D000C000C0BF
:100C0C0001C002C003C004C005C006C00790710932
:0E0C1C00E020E703020CBA907109E04480F07A
:100C2A0090637FE004F0E0C39408400AA3E0600602
:100C3A00E4F0906324F090637FE0C3940A4007E4F1
:060C4A00F0D204A304F047
:100C5000906324E06004E0B4070D7F011216579002
:100C600063247401F08053906324E0B401081219E6
:100C7000907402F08044906324E0B4030D7F02126C
:100C800016579063247404F08030906324E0B40419
:100C9000081219907405F08021906324E0B4050DCA
:100CA0007F031216579063247406F0800D9063241E
:100CB000E0B406061219907407F0D007D006D005EC
:100CC000D004D003D002D001D000D0D0D082D083C5
:050CD000D0F0D0E0327D
:1003F00042600300004262650000426263100041F7
:1004000062670060406005FFFF0000000000000020
:1004100000000000000000000000000000000000DC
:1004200000000000000000000000000000000000CC
:1004300000000000000000000000000000000000BC
:100440000000000000000041600000416001004128
:05045000600200C10381
:1011E4007F8BE47E06FDFC90635CE0F8A3E0F9A34A
:1011F400E0FAA3E0FB22EF25E0FFEE33FE74472F75
:10120400F58274603EF58322D3906372E094B890C3
:101214006371E0940B22ECF0A3EDF0906363E004BF
:10122400F022906362E0FEA3E0FFC322906000E03E
:1012340025E02405F582E43460F58322E4906362BA
:10124400F0A3F02233FE74052FF58274603EF5831B
:1012540022906362E004F022906363E025E0FF9053
:041264006362E022BF
:10004E0090635C12060000000000906321E0FFA3A5
:10005E00E0906360CFF0A3EFF0906005E0F47003E2
:05006E00A3E0F470495D
:100073001212411212269420EE9400501A906360DB
:10008300E0FCA3E0FDEF25E0FFEE12124812121A86
:1000930070E112125580DC121240121226940EEEF9
:1000A3009401505E906360E0FCA3E0FD1211FA122C
:0900B300121A70E612125580E1E8
:1000BC00121230E0FFA3E0906362CFF0A3EFF09058
:1000CC006360E0FEA3E0FF906363E02FF090636257
:1000DC00E03EF0E0C313FEA3E013FF906362EEF08A
:1000EC00A3EFF0121230EEF0A3EFF0906000E004FA
:0900FC00F0E0C394204002E4F09E
:100105001212401211EB12125C121248E0FEA3E02B
:10011500FFE4FCFDEB2FFFEA3EFEED39FDEC38FC7C
:1001250090635C1205F412121F700312125590634E
:1001350062E07004A3E0642070C990635CE0FCA3F6
:10014500E0FDA3E0FEA3E0FF78051205E190635C06
:030155001205F49C
:1001580090635CA3A3E0FEA3E0FDAC06906046E0DC
:1001680025E0FF906045E033FE74472FF582746008
:100178003EF583ECF0A3EDF0906046E004F07006E5
:10018800906045E004F0C3906046E0940E906045AE
:09019800E094014004E4F0A3F03E
:1001A100121240906265F0A3F09062637410F0A3A4
:1001B100E4F0121226940EEE940140030202491259
:1001C10011FAE0FCA3E0FD906265E0FAA3E0FBD345
:1001D100ED9BEC9A400F121201E0FFA3E0906265E3
:1001E100CFF0A3EFF012125C1211FFE0FCA3E0FDCF
:1001F100906263E0FAA3E0FBC3ED9BEC9A500F120F
:100201001201E0FFA3E0906263CFF0A3EFF09062F0
:1002110063E0FEA3E0FFC3906266E09FFF9062652A
:10022100E09EFED3EF9450EE940040089062677414
:100231001EF08009906267E06003E014F012121F63
:0802410070031212550201B313
:100249001211E4C31205D0500B3003681211E412E5
:1002590005D04060E4906001F0A3F0D2039062679A
:10026900E0B41E20E014F012120C400CA3E024FFAD
:10027900F0906371E034FFF0C312120D40030203E2
:1002890069020316906267E06003020369200103B3
:10029900020369C201C3906372E09470906371E0D4
:1002A90094174003020369A3E004F0700690637198
:1002B900E004F022E47FC37E051211E9D31205D0D0
:1002C90040537F6D1211E6D31205D04008906001AA
:1002D900E064047040200203020369C202906001D5
:1002E900E0C394045003E004F0E4906002F0C20318
:1002F90012120C40028053C312120D500DA3E004D8
:10030900F07006906371E004F022906371740BF051
:10031900A374B8F022E47FC37E051211E9D3120554
:10032900D04006906002E06037300234C20290602B
:10033900027401F0E4906001F0C203D3906372E0AB
:100349009408906371E09407400DA3E024FEF090B7
:100359006371E034FFF0229063717407F0A304F035
:010369002271
:10045500C1064463670000000044636B00000000B0
:10148F00906367E0FCA3E0FDA3E0FEA3E022E47F0E
:10149F00E87E03FDFCE0F8A3E0F9A3E0FAA3E0FB8C
:1014AF00C30205D094E8FFEE9403FEED9400FDEC2B
:1014BF009400FC0205F4FFEE3401FEE43DFDE43C34
:1014CF00FC0205F4C390634EE094D890634DE09412
:0F14DF000922906350E0943C90634FE0940F22F9
:100B1700E490634DF0A3F090634FF0A3F090634C23
:100B27007402F09063557409F0A374D8F09063577A
:100B3700740FF0A3743CF01214D340081214E14070
:100B470003020BCD300663C20612148F243B906359
:100B5700671214C590636712149D401A12148F9080
:100B670063671214B31214D3500CA3E004F0700699
:100B770090634DE004F090636B12149224E7906346
:100B87006B1214C590636B12149D401E90636B1219
:100B9700149290636B1214B3C31214E1500CA3E0C8
:100BA70004F0700690634FE004F090634DE0FEA3FD
:100BB700E0FF12196D90634FE0FEA3E0FF12197674
:100BC700121268020B3E90634DE0FFA3E090635161
:100BD700CFF0A3EFF090634FE0FFA3E0906353CF14
:100BE700F0A3EFF090634C7403F090635A04F09015
:040BF700635904F04A
:010BFB0022D7
:1004650060866268000000000000000000000000D7
:100475000000000000000000000000000000000077
:100485000000000000000000000000000000000067
:100495000000000000000000000000000000000057
:1004A5000000000000000000000000000000000047
:1004B5000000000000000000000000000000000037
:1004C5000000000000000000000000000000000027
:1004D5000000000000000000000000000000000017
:0A04E500000000000000000000000D
:1018520078C2E2543FF29071757404F075D6017546
:10186200D59F75D211E5B554F3440442B543AA207D
:03187200D2AF22D0
:09197F009062ECE0FEA3E0FF22FF
:101545009062ECE07002A3E07002FF229062EBE093
:1015550004F070069062EAE004F0C39062EBE09458
:10156500809062EAE094004004E4F0A3F09062EA1F
:10157500E0FEA3E02468F58274623EF583E0FF9007
:0D15850062EDE024FFF09062ECE034FFF036
:011592002236
:1014EE009062E9E004F070069062E8E004F0C390C8
:1014FE0062E9E094809062E8E094004004E4F0A396
:10150E00F09062E8E0FCA3E02468F58274623CF59A
:10151E0083EFF09062EDE004F070069062ECE00470
:10152E00F0D39062EDE094809062ECE0940040067F
:07153E00E4F0A37480F02229
:03004B000217B6E3
:1017B600C0E0C083C082C0D075D000C004C007E5B9
:0417C600D430E50B2B
:0B17CA00906366E5D7F0E0FF1214EE1C
:0D17D500D007D004D0D0D082D083D0E03235
:1016D40090633FE004F0A32290634CE090634BF0EE
:1016E400A37404F0E490635BF02290634CE0640222
:1016F40022E0242AF582E43463F583227409F0E4B9
:0D170400F9A322F090634DE0FEA3E0FF2268
:10195B00E490633EF0A3F0A3F0A3F0A3F0A3F0A3F5
:02196B00F02268
:10187500906342E0601BC3906344E094FF90634330
:10188500E094FF500CA3E004F07006906343E0047D
:02189500F0223F
:10192400C3906344E094D0906343E094074003126F
:03193400195B221A
:0508D30090635CEFF0F2
:1008D8007901E490635EF0906341E0146023146052
:1008E8002D14603714604C147003020995240560B8
:1008F800030209E690635CE0644A60030209E6804B
:100908002590635CE0645960030209E680189063EF
:100918005CE0644D60030209E6800B90635CE06470
:100928004360030209E6F9906341E004F090633FF5
:100938000209E390635CE024EC601F24E86027145C
:10094800602D24F8603124FD6038242560030209F5
:10095800E61216D41217000209E31216D47408F02E
:10096800E4F9A30209E31216D41217000209E312EC
:1009780016D412170080641216D4740BF0E4F9A38D
:1009880080591216D4740AF0E4F9A3804EE4F912DF
:1009980016D4E0FF90633FE0C39F4042E490635D5C
:1009A800F090633FE014FF90635DE0C39F5019A38C
:1009B800E0FF90635D1216F5E0FEEF6E90635EF067
:1009C80090635DE004F080D990635CE0FF90635E23
:1009D800E06F600479018006906341E004F0E970FB
:1009E8001390635CE0FF90633E1216F5EFF090639E
:0609F8003EE004F0AF0137
:0109FE0022D6
:101616001216EE603BE064036036E06401603174EC
:1016260003F0906355E0FFA3E090634DCFF0A3EF86
:10163600F0906357E0FFA3E090634FCFF0A3EF1263
:10164600170712196D90634FE0FEA3E0FF1219769B
:011656002271
:101809001216EE601FE0601CE4F0A3F0A3F09063F1
:101819004FF0A312170712196D90634FE0FEA3E072
:05182900FF12197622F8
:04001A001216DC22BC
:040045001216DC2291
:10103E001216EE70030210CB90633FE0C3940B4088
:10104E007C90634C7403F0906332E0B4D30CA3E055
:10105E00B44207E490635AF08060906332E0B47259
:10106E000DA3E0B4A50890635A7401F0804C906310
:10107E0032E0B43F0DA3E0B4D10890635A7402F08D
:10108E008038906332E0700DA3E0B4FF0890635A8D
:10109E007403F08025906332E0B43F0DA3E0B4A555
:1010AE000890635A7404F08011906332E0B4FF0A22
:0E10BE00A3E0700690635A7405F012079922A1
:101350001216EE606990633FE0C3940A40609063A8
:101360004C7403F0906331E0B40507E4906359F0E6
:101370008049906331E0B40A089063597401F080A9
:101380003A906331E0B419089063597402F0802BED
:10139000906331E0B432089063597403F0801C907C
:1013A0006331E0B44B089063597404F0800D90638E
:0F13B00031E0B464069063597405F01207992276
:10126800906342E0600312192412197FEF4E602345
:10127800906341E06406601B121545AD0790634218
:101288007401F0E4A3F0A3F01208D3EF60DB1219A5
:101298005B80D6906341E06406703A90632EE02448
:1012A800EC601824E8601914601B24F8601C24FD05
:1012B800601D2425701C121616801712180980123A
:1012C80012001A800D120045800812103E80031289
:0512D800135012195B28
:0112DD0022EE
:1004EF00416345004263460000416348004263494F
:0204FF000000FB
:100DA400906351E0FEA3E0FF7C00120631E47B6413
:100DB400FAF9F812053E906351EEF0A3EFF0906358
:100DC40053E0FEA3E0FF7C0022906355E0FEA3E025
:100DD400FF906346E0FCA3E0FD120631E47BF47A65
:100DE40001F9F812053E90634DEEF0A3EFF0906325
:100DF40057E0FEA3E0FF906346E0FCA3E0FD12068B
:100E040031E47BF47A01F9F802053E90634DE0FE8B
:100E1400A3E0FF2290634FE0FEA3E0FF22C39063B0
:100E240056E09F906355E09E22C3906347E094F49C
:100E3400906346E0940122EE90634FF0A3EFF0221A
:0B0E4400906358E09F906357E09E22EF
:1017E200906351E0FEA3E0FF1212DE906355EEF02B
:1017F200A3EFF0906353E0FEA3E0FF1212DE9063CA
:0718020057EEF0A3EFF02206
:1007990090635AE014602914603C14604F14605F40
:1007A900146072240560030208D29063517406F044
:1007B900A37418F09063537413F0A37474F08066F3
:1007C900906351740FF0A3743CF0906353740AF072
:1007D900A3748CF080509063517413F0A37438F0B3
:1007E9009063537405F0A374DCF0803A90635174FC
:1007F90017F0A37470F0E4906353F0A3F08027908E
:1008090063517409F0A374D8F0906353740FF0A383
:10081900743CF08011E4906351F0A3F09063537439
:1008290017F0A37470F0906359E014601A146021F2
:1008390014602E14603A146046240570637D051215
:100849000DA47D050208957D0A120DA47D0A0208F2
:1008590095906351120DC57D19120DAE7D190208CF
:1008690095906351120DC57D32120DAE7D32801CFB
:10087900906351120DC57D4B120DAE7D4B800D90CD
:100889006351120DC57D64120DAE7D64120631E40B
:100899007B64FAF9F812053E906353EEF0A3EFF08A
:1008A9001217E2906355E0FFA3E090634DCFF0A3E8
:1008B900EFF0906357E0FFA3E0CF120E3C120E0F4A
:0A08C90012196D120E181219762292
:1013BF00120E0FD3120E22401090634EE004F07005
:1013CF001E90634DE004F08016120E0F120E215086
:1013DF000E90634EE024FFF090634DE034FFF01267
:1013EF000E18D3120E444010906350E004F0701F9B
:1013FF0090634FE004F08017120E18C3120E445082
:10140F000E906350E024FFF090634FE034FFF01232
:0B141F000E0F12196D120E1802197644
:1009FF00906348E004F0E0C3940A5003020B16E43E
:100A0F00F090635BE0147003020AA0147003020AF3
:100A1F00C324026003020AF9E4906345F0A3F0A334
:100A2F00F090634DE07002A3E0700A90634FE070A6
:100A3F0002A3E0605390635B7402F0906357E0FE93
:100A4F00A3E0FF120E214013120E0F7C017DF41252
:100A5F000631C006C0079063558011120E187C0135
:100A6F007DF4120631C006C007906357E0FEA3E085
:100A7F00FBAA06E4F9F8D007D00612053E906346AC
:100A8F00EEF0A3EFF0020AF990635B7401F0020A33
:100A9F00F9120E2D500CA3E004F07006906346E09F
:100AAF0004F0120DCD120E3B120E2D403D90635BE4
:100ABF007402802FD3906347E09400906346E094D4
:100ACF0000400CA3E024FFF0906346E034FFF012E7
:100ADF000DCD120E3B906346E07002A3E0700B90B9
:100AEF00635B04F0906345E004F0906345E0C394CA
:100AFF000A4008E4F090634BE0A3F0120E0F1219B6
:070B0F006D120E1812197699
:010B160022BC
:10174B0090634AE004F07006906349E004F0906304
:10175B004CE024FD6005146018801DC390634AE0C3
:10176B009414906349E09400400EE4F0A3F002134C
:08177B00BFD2A61209FFC2A6AD
:011783002243
:1010D80002142AE493A3F8E493A34003F68001F2F0
:1010E80008DFF48029E493A3F85407240CC8C33319
:1010F800C4540F4420C8834004F456800146F6DFE8
:10110800E4800B010204081020408090036AE47E0A
:10111800019360BCA3FF543F30E509541FFEE493DC
:10112800A360010ECF54C025E060A840B8E493A3A3
:10113800FAE493A3F8E493A3C8C582C8CAC583CACE
:10114800F0A3C8C582C8CAC583CADFE9DEE780BE86
:0105010000F9
:1005020075F008758200EF2FFFEE33FECD33CDCCB0
:1005120033CCC58233C5829BED9AEC99E582984033
:100522000CF582EE9BFEED9AFDEC99FC0FD5F0D610
:10053200E4CEFBE4CDFAE4CCF9A88222B800C1B93A
:100542000059BA002DEC8BF084CFCECDFCE5F0CB78
:10055200F97818EF2FFFEE33FEED33FDEC33FCEBB1
:1005620033FB10D703994004EB99FB0FD8E5E4F96C
:10057200FA227818EF2FFFEE33FEED33FDEC33FC59
:10058200C933C910D7059BE99A4007EC9BFCE99A4D
:10059200F90FD8E0E4C9FAE4CCFB2275F010EF2F92
:1005A200FFEE33FEED33FDCC33CCC833C810D70792
:1005B2009BEC9AE899400AED9BFDEC9AFCE899F8CD
:0E05C2000FD5F0DAE4CDFBE4CCFAE4C8F92260
:1005D000EB9FF5F0EA9E42F0E99D42F0E89C45F081
:0105E00022F8
:1005E100E8600FECC313FCED13FDEE13FEEF13FFF8
:0305F100D8F1221C
:0C05F400ECF0A3EDF0A3EEF0A3EFF0227A
:10060000A8828583F0D083D08212061712061712B3
:100610000617120617E473E493A3C583C5F0C583D8
:10062000C8C582C8F0A3C583C5F0C583C8C582C844
:0106300022A7
:10063100EC8EF0A4CCC5F0CCCDF8EFA4CEC5F02D56
:10064100FDE43CFCE8A42EC8C5F03DFDE43CFCEF14
:0D065100A4FFE5F028FEE43DFDE43CFC22A2
:00000001FF
