:0300000002198A58
:0C198A00787FE4F6D8FD7581210219D1A8
:0C000300000000000000000000000000F1
:0B217000EF1FAC0670011E4C70F62241
:10002A00AB07AA06EB1BAE0270011A4E60097FAA43
:08003A007E0512217080ED2209
:1014B300907120E04480F07F057E00122170E4FFEC
:1014C300FE12002A75A75575AC589071327450F00E
:1014D3009071307403F0907136742FF07F18EF24FD
:1014E30066FDE434718D82F583E4F00FEFB433EEDF
:1014F300904011E4935407FF90711CE054F84FF0AF
:10150300904017E493547FFF90711DE054804FF097
:10151300904010E493FF5401C43333335480FE905E
:101523007123E0547F4EF0EFC313543F4440FFA3B5
:10153300E054804FF0904012E493FF540FFE9071FB
:1015430046E054F04EF0EFC4540FFF90714FE05457
:10155300F04FF0904013E493543FFF907140E054F8
:10156300C04FF0904014E493907126F0904015E43E
:0E15730093907128F0904016E49390712AF046
:011581002247
:0B217B007379732072657365740A00AD
:0821A1007417F0A37470F02222
:1018F30075D9DD1214B375D95590715EE054FEF0BD
:1019030075D9BB121FB51221047BFF7A21797B1293
:1019130000B978E3E254CFF2E24410F2907194E418
:10192300F01220AF1220E0122094121856122074E5
:101933001220531220F278D3E254FCF2E24401F273
:1019430090718AE4F0C29490639A1221A1906396F5
:101953001221A19063981221A112130090637BE0DE
:10196300FEA3E0FF121B2690637FEEF0A3EFF0903F
:10197300637DE0FEA3E0FF121B26906381EEF0A3DC
:07198300EFF012158280D580
:0F0B91004263961770426398177042639A177009
:101E1400FFE0FCA3E0FD120AC6E47B707A17F9F830
:101E24001209D3906330EEF0A3EFF0906330E0FE3C
:101E3400A3E0FFC390632FE09F90632EE09E229067
:101E4400632CE0FEA3E022AC06ECF218EFF2781764
:021E5400E22288
:101856007812E24401F278567407F278277417F288
:1018660018746FF27833E4F218F27819E24401F250
:101876007811E24401F27817E24401F27812E24468
:1018860001F27814E24401F27818E24401F278D3C6
:10189600E254CFF2E24410F290718C740AF078129E
:1018A600E24402F278577407F278297417F2187432
:1018B6006FF27837E4F218F27819E24402F27811FE
:1018C600E24402F27817E24402F27812E24402F2AB
:1018D6007814E24402F27818E24402F278C3E25441
:0D18E600F3F2E24404F29071837409F022E1
:092186007833121E4B4401F222D1
:09218F007837121E4B4402F222C3
:0C2158007818E230E0037F01227F0022B3
:0C2164007818E230E1037F01227F0022A6
:0D2124007818E24401F290718C740AF022E8
:0E000F0090718CE4F0D2967818E254FEF22242
:0D2131007818E24402F29071837409F022E4
:0E211600907183E4F0D2857818E254FDF22235
:081B260090632CEEF0A3EFF038
:101B2E00A3EEF0A3EFF0906396E064177004A3E0C9
:101B3E0064706010121E43906396121E144005EEE0
:101B4E00F0A3EFF0906398E064177004A3E0647064
:101B5E006010121E43906398121E144005EEF0A3FF
:101B6E00EFF090639AE064177004A3E06470601164
:101B7E00121E43FF90639A121E154005EEF0A3EF5E
:091B8E00F090632EE0FEA3E0FFDD
:011B9700222B
:100BA00041632300C10E416325004163240041637A
:100BB000000060206301FFFF000000000000000053
:100BC0000000000000000000000000000000000025
:100BD0000000000000004462FC000000004162EEE2
:100BE000004162EF004162F0004162F1004462F2B4
:0E0BF000000000004262F600004262F8FFFFC3
:101E56007FEA7E0B9063A2FDFCE0F8A3E0F9A3E025
:101E6600FAA3E0FB22F0E0441EF09071227407F022
:101E760022E0FF906355E09F906354E09E229062BB
:101E8600F1E0C3941422E0FCA3E0FDA3E0FEA3E08E
:011E96002229
:1020AF0078F2E24403F278E3E244C0F278F2E244D9
:0920BF000CF278D2E244C0F222D6
:1020E00043AA04D2AF786AE24479F27F017E00020B
:0220F000002AC4
:101E9700EF24FE60191460242402702C907123E053
:101EA70054D8F0E0441D121E6F759917801A90716F
:101EB70023E054F8121E6B759918800C907123E07B
:0F1EC70054D8121E6B75990B7869E24448F222C9
:1020C8009062FAE0FEA3E0FF7C007D0C120AC6E4F1
:0820D8007B0AFAF9F80209D3B2
:101F1400906323E0B4012874FFFFFE9062FC121E5C
:101F24005DC3120A6550229062FC121E8C2401FFCC
:101F3400E43EFEE43DFDE43CFC9062FC020A899030
:0A1F440062FC120A95000000002262
:101704009063A2120A9500000000906323E0640233
:0517140070030217AD97
:101719009062EEE004F0E0C3946450030217ADE474
:01172900F0CF
:0F172A001220C89063A2120A89906323E0702CEA
:10173900121E56C3120A6550089062EFE004F08049
:1017490005E49062EFF09062EFE0C3940AE4400789
:0C175900F090632304F022906323F02240
:10176500906323E0640170407F307E75FDFC9062DC
:0A177500FC121E5FC3120A65402E2D
:10177F00E4121E56120A6550089062F0E004F080E1
:10178F0005E49062F0F09062F0E0C3940A4009E43F
:0E179F00F09063237402F0229063237401F033
:0117AD002219
:101F8300906323E07008300D28C20D0203B3906301
:101F930023E0B4010B906396740BF0A374B8F022A2
:101FA300906323E0B4020A9063967405F0A374DC93
:021FB300F0221A
:101ED600906328E0FEA3E0FF906325E0701AD3EF3D
:101EE6009420EE940E5004D20E8002C20E90639A95
:101EF6007417F0A37470F022C3EF94C8EE940E40EA
:0D1F060002C20E90639A7405F0A374DCF023
:011F130022AB
:03004200020E812A
:100E8100C0E0C0F0C083C082C0D075D000C000C037
:100E910001C002C003C004C005C006C007786BE2F0
:060EA10020E103020FA195
:100EA700AF93EF75F010A4FFE594C4540FFDEF4D19
:100EB700FF906354E5F0F0A3EFF0E24402F2906391
:090EC70024E064026003020F78CC
:100ED000121E845067E004F0E0C394024053906215
:100EE000F6E0FEA3D3121E77400CE0FFA3E0906271
:100EF000F6CFF0A3EFF09062F8E0FEA3C3121E77E6
:100F0000500CE0FFA3E09062F8CFF0A3EFF0906206
:100F1000F2121E5F906354E0FEA3E0FFE4FCFDEBE1
:100F20002FFFEA3EFEED39FDEC38FC9062F2120A2A
:100F300089121E8450067869E24401F2121E844030
:100F400060A3121E8CFF7804120A76906321EEF0E3
:100F5000A3EFF09063247403F09062F1E4F09062E8
:100F6000F6F0A3F09062F874FFF0A3F09062F21232
:060F70000A9500000000DC
:100F76008029906324E0B4050C906354E0FFA3E05D
:100F86009062FA8011906324E0B4070F906354E0F6
:0B0F9600FFA3E0906328CFF0A3EFF072
:100FA100D007D006D005D004D003D002D001D000A4
:0B0FB100D0D0D082D083D0F0D0E0324E
:0A0BFE004263A600004263A8000055
:1020940043A820D2AF75D10178957401F2187476F3
:0B20A400F2789174A0F21874FDF22293
:03001E000217AE18
:1017AE00C0E0C0F0C083C082C0D075D000C000C001
:1017BE0001C002C003C004C005C006C0077891E294
:0917CE0030E76AE24480F2D20F18
:1017D700300E2F9063A9E004F070069063A8E00430
:1017E700F09063A6E4F0A3F0C39063A9E09432906D
:1017F70063A8E094004037E4F0A3F090632504F079
:10180700802C9063A7E004F070069063A6E004F0D4
:101817009063A8E4F0A3F0C39063A7E094409063BB
:0E182700A6E0941F4008E4F0A3F0906325F0C3
:10183500121F14122031D007D006D005D004D003D2
:10184500D002D001D000D0D0D082D083D0F0D0E06B
:011855003260
:0B0C0800C10AC10B42639C0000C1093F
:1020740043A901D2AF75D104907105E4F0907104C5
:102084007424F090710174A0F090710074FDF0223A
:03002400021A16A7
:101A1600C0E0C0F0C083C082C0D075D000C000C096
:101A260001C002C003C004C005C006C00790710112
:101A3600E030E74DE04480F090639FE004F07006EC
:101A460090639EE004F09063A1E004F0700690635A
:101A5600A0E004F0C39063A1E0940D9063A0E0942D
:101A6600004006E4F0A3F0D20BC390639FE0940D10
:101A760090639EE094004006E4F0A3F0D20A121FA1
:101A86004ED007D006D005D004D003D002D001D066
:0C1A960000D0D0D082D083D0F0D0E0325D
:1020F20078D2E254CFF2E24410F2907188E4F0C256
:02210200922227
:10200D00C3906378E09458906377E094025012C3C4
:10201D0090637AE09458906379E094025003D292E1
:04202D0022C2922217
:040C13004163AB018D
:0721B1007869E24401F2220B
:1020530043A902D2AF75D10890710D7401F090714C
:102063000C745DF090710974A0F090710874FDF028
:01207300224A
:030027000213DAE7
:1013DA00C0E0C0F0C083C082C0D075D000C000C0D9
:1013EA0001C002C003C004C005C006C0079071094D
:0E13FA00E020E703021498907109E04480F0AF
:101408009063AAE004F0E0C39408400AA3E06006F1
:10141800E4F0906324F09063AAE0C3940A4007E4E0
:06142800F0D20DA304F058
:10142E00906324E06004E0B4070D7F01121E9790D4
:10143E0063247401F08053906324E0B401081221F8
:10144E00B17402F08044906324E0B4030D7F021265
:10145E001E979063247404F08030906324E0B404EB
:10146E00081221B17405F08021906324E0B4050DBB
:10147E007F03121E979063247406F0800D906324F0
:10148E00E0B406061221B17407F0D007D006D005DD
:10149E00D004D003D002D001D000D0D0D082D083DF
:0514AE00D0F0D0E03297
:100C170042600300004262650000426263100041C7
:100C270062670060406005FFFF00000000000000F1
:100C370000000000000000000000000000000000AD
:100C4700000000000000000000000000000000009D
:100C5700000000000000000000000000000000008D
:100C670000000000000000416000004160010041F9
:050C7700600200C10C49
:101AA2007F8BE47E06FDFC906386E0F8A3E0F9A359
:101AB200E0FAA3E0FB22EF25E0FFEE33FE74472FAE
:101AC200F58274603EF58322D3906399E094B890D6
:101AD2006398E0940B22ECF0A3EDF090638DE004A8
:101AE200F02290638CE0FEA3E0FFC322906000E04E
:101AF20025E02405F582E43460F58322E490638CCA
:101B0200F0A3F02233FE74052FF58274603EF58354
:101B12002290638CE004F02290638DE025E0FF9038
:041B2200638CE022CE
:1003B300906386120A9500000000906321E0FFA37A
:1003C300E090638ACFF0A3EFF0906005E0F4700350
:0503D300A3E0F47049F5
:1003D800121AFF121AE49420EE9400501A90638ABD
:1003E800E0FCA3E0FDEF25E0FFEE121B06121AD891
:1003F80070E1121B1380DC121AFE121AE4940EEE3E
:100408009401505E90638AE0FCA3E0FD121AB812D2
:090418001AD870E6121B1380E1F2
:10042100121AEEE0FFA3E090638CCFF0A3EFF090FF
:10043100638AE0FEA3E0FF90638DE02FF090638C70
:10044100E03EF0E0C313FEA3E013FF90638CEEF0F7
:10045100A3EFF0121AEEEEF0A3EFF0906000E004CB
:09046100F0E0C394204002E4F035
:10046A00121AFE121AA9121B1A121B06E0FEA3E0A8
:10047A00FFE4FCFDEB2FFFEA3EFEED39FDEC38FC14
:10048A00906386120A89121ADD7003121B13906395
:10049A008CE07004A3E0642070C9906386E0FCA33A
:1004AA00E0FDA3E0FEA3E0FF7805120A76906386DA
:0304BA00120A899A
:1004BD00906386A3A3E0FEA3E0FDAC06906046E04A
:1004CD0025E0FF906045E033FE74472FF5827460A0
:1004DD003EF583ECF0A3EDF0906046E004F070067D
:1004ED00906045E004F0C3906046E0940E90604546
:0904FD00E094014004E4F0A3F0D6
:10050600121AFE906265F0A3F09062637410F0A375
:10051600E4F0121AE4940EEE940140030205AE12C2
:100526001AB8E0FCA3E0FD906265E0FAA3E0FBD315
:10053600ED9BEC9A400F121ABFE0FFA3E0906265B4
:10054600CFF0A3EFF0121B1A121ABDE0FCA3E0FDD8
:10055600906263E0FAA3E0FBC3ED9BEC9A500F12A6
:100566001ABFE0FFA3E0906263CFF0A3EFF09062C2
:1005760063E0FEA3E0FFC3906266E09FFF906265C2
:10058600E09EFED3EF9450EE9400400890626774AC
:100596001EF08009906267E06003E014F0121ADD35
:0805A6007003121B130205187B
:1005AE00121AA2C3120A65500B300C68121AA2124C
:1005BE000A654060E4906001F0A3F0D20C9062678F
:1005CE00E0B41E20E014F0121ACA400CA3E024FF7F
:1005DE00F0906398E034FFF0C3121ACB400302068A
:1005EE00CE02067B906267E060030206CE200A030D
:1005FE000206CEC20AC3906399E09470906398E0AD
:10060E00941740030206CEA3E004F07006906398A0
:10061E00E004F022E47FC37E05121AA7D3120A6506
:10062E0040537F6D121AA4D3120A654008906001E0
:10063E00E064047040200B030206CEC20B906001F2
:10064E00E0C394045003E004F0E4906002F0C20CA6
:10065E00121ACA40028053C3121ACB500DA3E004E3
:10066E00F07006906398E004F022906398740BF09B
:10067E00A374B8F022E47FC37E05121AA7D3120A20
:10068E00654006906002E06037300B34C20B90601C
:10069E00027401F0E4906001F0C20CD3906399E013
:1006AE009408906398E09407400DA3E024FEF09028
:1006BE006398E034FFF0229063987407F0A304F07F
:0106CE002209
:100C7C00C10F44638E00000000446392000000002A
:101B980090638EE0FCA3E0FDA3E0FEA3E022E47FD7
:101BA800E87E03FDFCE0F8A3E0F9A3E0FAA3E0FB7C
:101BB800C3020A6594E8FFEE9403FEED9400FDEC81
:101BC8009400FC020A89FFEE3401FEE43DFDE43C8A
:101BD800FC020A89C3906378E094D8906377E09414
:101BE800092290637AE0943C906379E0940F22CFC5
:0C1BF800F0A3EFF0906379E0FFA3E0227F
:10130000E4906377F0A3F0906379F0A3F0906376B4
:1013100004F0121BDC4008121BEA400302139E304B
:101320000F63C20F121B98243B90638E121BCE904A
:10133000638E121BA6401A121B9890638E121BBC60
:10134000121BDC500CA3E004F07006906377E004FD
:10135000F0906392121B9B24E7906392121BCE9035
:101360006392121BA6401E906392121B9B90639285
:10137000121BBCC3121BEA500CA3E004F0700690D1
:101380006379E004F0906377E0FEA3E0FF1221862A
:10139000906379E0FEA3E0FF12218F0213129063A5
:1013A00077E0FFA3E090637F121BF7906381CFF09B
:1013B000A3EFF0906377E0FFA3E090637B121BF74D
:1013C00090637DCFF0A3EFF09063767402F09063AA
:0913D000847404F090638304F0BE
:0113D90022F1
:100C8C0060866268000000000000000000000000A8
:100C9C000000000000000000000000000000000048
:100CAC000000000000000000000000000000000038
:100CBC000000000000000000000000000000000028
:100CCC000000000000000000000000000000000018
:100CDC000000000000000000000000000000000008
:100CEC0000000000000000000000000000000000F8
:100CFC0000000000000000000000000000000000E8
:0A0D0C0000000000000000000000DD
:0821A900E5D430E4FB8FD722DE
:101FB50078C2E254FCF2E24401F290717EE04404FE
:101FC500F078E3E254F3F29071757416F075D6016A
:0C1FD50075D59F75D21143AA20D2AF220F
:092198009062ECE0FEA3E0FF22DE
:101DC6009062ECE07002A3E07002FF229062EBE00A
:101DD60004F070069062EAE004F0C39062EBE094CF
:101DE600809062EAE094004004E4F0A3F09062EA96
:101DF600E0FEA3E02468F58274623EF583E0FF907E
:0D1E060062EDE024FFF09062ECE034FFF0AC
:011E130022AC
:101CC9009062E9E004F070069062E8E004F0C390E5
:101CD90062E9E094809062E8E094004004E4F0A3B3
:101CE900F09062E8E0FCA3E02468F58274623CF5B8
:101CF90083EFF09062EDE004F070069062ECE0048E
:101D0900F0D39062EDE094809062ECE0940040069C
:071D1900E4F0A37480F02246
:03004B00021FE1B0
:101FE100C0E0C083C082C0D075D000C004C007E586
:041FF100D430E50BF8
:0B1FF500906356E5D7F0E0FF121CC916
:0D200000D007D004D0D0D082D083D0E03201
:1006CF005541525420726563656976652074696D72
:1006DF00656F75742C2063757272656E74207374F8
:1006EF00617475733A2025750A00427566666572E6
:1006FF0020636F6E74656E743A200A00307825306F
:10070F00327820000A0066756E63203A2075617298
:10071F00745F636D645F706169725F68616E646C52
:10072F00650A0066756E63203A20756172745F63A7
:10073F006D645F63616E63656C5F70616972696E32
:10074F00675F68616E646C650A0066756E63203A58
:10075F0020756172745F636D645F7365745F636F3F
:10076F006C6F725F68616E646C650A00756172749C
:10077F005F72656365697665722E726563765F6C0D
:10078F00656E203D3D2025750A006572720A007363
:10079F00657420636F6C6F722074656D702069646F
:1007AF007820310A0073657420636F6C6F72207448
:1007BF00656D702069647820320A00736574206358
:1007CF006F6C6F722074656D702069647820330AC6
:1007DF000073657420636F6C6F7220746F20626C8E
:1007EF0075650A0073657420636F6C6F7220746F88
:1007FF00206379616E0A0073657420636F6C6F728A
:10080F0020746F20677265656E0A007365742063CC
:10081F006F6C6F72206D6F6465206572720A00666F
:10082F00756E63203A20756172745F636D645F73D8
:10083F0065745F6272696768746E6573735F6C6508
:10084F00765F68616E646C650A007365742062720E
:10085F00696768746E657373206C657620310A0062
:10086F00736574206272696768746E657373206C48
:10087F00657620320A007365742062726967687446
:10088F006E657373206C657620330A007365742070
:10089F006272696768746E657373206C6576203455
:1008AF000A00736574206272696768746E6573738A
:1008BF00206C657620350A00736574206272696753
:1008CF0068746E657373206C657620360A00427902
:1008DF0074652070726F63657373696E67206661EC
:1008EF00696C65640A006375722075617274207299
:1008FF0065636569766572207374617475733A20E8
:10090F00253032640A007265637620636D643A2085
:10091F00646576206F6E0A007265637620636D647E
:10092F003A20646576206F66660A007265637620EA
:10093F00636D643A20706169720A00726563762094
:10094F00636D643A2063616E63656C2070616972D8
:10095F00696E670A007265637620636D643A20736F
:10096F00657420636F6C6F720A0072656376206323
:10097F006D643A20736574206272696768746E657E
:08098F007373206C65760A0009
:101D75007BFF7A07790B74572EF582E43463F5837C
:101D8500E0FF90632FE4F0A3EFF02290636CE00492
:101D9500F0A322906376E0906375F0A37403F0E4FA
:101DA500906385F022E02457F582E43463F58322BD
:101DB5007409F0E4F9A3227BFF7A07797B90636CC1
:011DC50022FB
:10210400E490636BF0A3F0A3F0A3F0A3F0A3F0A317
:02211400F022B7
:1020310090636FE0601BC3906371E094FF906370E5
:10204100E094FF500CA3E004F07006906370E0048C
:02205100F0227B
:101D2000C3906371E094D0906370E0940740457B6A
:101D3000FF7A0679CF90636E121D851200B97BFF82
:101D40007A0679F91200B9E490632BF090636BE0A6
:101D5000FF90632BE0FEC39F500E121D751200B959
:101D600090632BE004F080E47BFF7A077913120084
:041D7000B91221047F
:011D7400224C
:050FBC0090632BEFF033
:100FC1007901E490632DF090636EE0146023146066
:100FD1002D14603714604C14700302107E240560D8
:100FE100030210CF90632BE0644A60030210CF80AC
:100FF1002590632BE0645960030210CF8018906341
:101001002BE0644D60030210CF800B90632BE064F2
:101011004360030210CFF990636EE004F090636CBB
:101021000210CC90632BE024EC601F24E8602714AD
:10103100602D24F8603124FD6038242560030210FE
:10104100CF121D90121DB50210CC121D907408F024
:10105100E4F9A30210CC121D90121DB50210CC129E
:101061001D90121DB58064121D90740BF0E4F9A35C
:101071008059121D90740AF0E4F9A3804EE4F9122C
:101081001D90E0FF90636CE0C39F4042E490632CAD
:10109100F090636CE014FF90632CE0C39F5019A3A0
:1010A100E0FF90632C121DAAE0FEEF6E90632DF01D
:1010B10090632CE004F080D990632BE0FF90632DC6
:1010C100E06F60047901800690636EE004F0E970DE
:1010D1001390632BE0FF90636B121DAAEFF09063F6
:0610E1006BE004F0AF011A
:0110E70022E6
:05004500906376E0224B
:0D213E007BFF7A0779151200B9121D982257
:0D214B007BFF7A0779321200B9121D98222D
:1011FA007BFF7A0779591200B9906376E06401603F
:10120A000990636CE0C3940B5012121DBC121D8529
:10121A001200B97BFF7A0779990200B990635FE0FF
:10122A00B4D316A3E0B442117BFF7A07799E120069
:10123A00B9E4906384F00212EA90635FE0B4721238
:10124A00A3E0B4A50D7A0779B41212EE7401F00284
:10125A0012EA90635FE0B43F12A3E0B4D10D7A07BB
:10126A0079CA1212EE7402F00212EA90635FE07019
:10127A0011A3E0B4FF0C7A0779E01212F77403F0B5
:10128A00805E90635FE0B43F11A3E0B4A50C7A07D7
:10129A0079F31212F77404F0804690635FE0B4FFAA
:1012AA0015A3E070117BFF7A0879061200B99063E2
:1012BA00847405F0802A7BFF7A08791A1200B9E44F
:1012CA0090632BF090636CE0FF90632BE0FEC39F6A
:1012DA00500E121D751200B990632BE004F080E4E1
:0312EA00120D20C2
:1012ED00227BFF1200B9906384227BFF1200B9901C
:0312FD00638422E5
:101649007BFF7A08792E1200B9906376E064016015
:101659000990636CE0C3940A5012121DBC121D85D7
:101669001200B97BFF7A0779990200B990635EE0AD
:10167900B405107BFF7A0879591200B9E4906383A5
:10168900F0806290635EE0B40A0C7A08796F1216F2
:10169900F27401F0804F90635EE0B4190C7A087916
:1016A900851216F27402F0803C90635EE0B4320C4D
:1016B9007A08799B1216FB7403F0802990635EE027
:1016C900B44B0C7A0879B11216FB7404F0801690A9
:1016D900635EE0B4640F7BFF7A0879C71200B990A2
:1016E90063837405F0120D20227BFF1200B9906309
:0B16F90083227BFF1200B99063832264
:1015820090636FE06003121D20122198EF4E6041BC
:1015920090636EE064066039121DC6AD0790636FFA
:1015A2007401F0E4A3F0A3F0120FBCEF60DB9063D0
:1015B2006EE060187BFF7A0879DD1200B97BFF7A52
:1015C2000879F590636E121D851200B9122104800C
:1015D200B890636EE06406706D90635BE024EC602B
:1015E2002124E8602814603324F8603D24FD60471C
:1015F2002425704F7BFF7A0979151200B912004534
:1016020080417BFF7A0979271200B980367BFF7A05
:1016120009793A1200B912213E80287BFF7A0979B2
:101622004A1200B912214B801A7BFF7A097964129F
:1016320000B91211FA800C7BFF7A0979791200B98C
:06164200121649122104FA
:01164800227F
:090D1600416372004263730000A6
:101C040090637BE0FEA3E0FF7C00120AC6E47B64E1
:101C1400FAF9F81209D390637BEEF0A3EFF0906326
:101C24007DE0FEA3E0FF7C0022906377E0FEA3E06A
:101C3400FF22906379E0FEA3E0FF22E024FFF0900E
:101C44006377E034FFF022E024FFF0906379E0341E
:101C5400FFF022906380E09F90637FE09E22906378
:091C640082E09F906381E09E2262
:100D2000906384E014602914603C14604F14605F89
:100D300014607224056003020E8090637B7406F0D9
:100D4000A37418F090637D7413F0A37474F080663C
:100D500090637B740FF0A3743CF090637D740AF091
:100D6000A3748CF0805090637B7413F0A37438F0FC
:100D700090637D7405F0A374DCF0803A90637B741B
:100D800017F0A37470F0E490637DF0A3F0802790D7
:100D9000637B7409F0A374D8F090637D740FF0A3A3
:100DA000743CF08011E490637BF0A3F090637D7459
:100DB00017F0A37470F0906383E014601A1460213C
:100DC00014602E14603A146046240570637D051289
:100DD0001C047D05020E1C7D0A121C047D0A020EF5
:100DE0001C90637B121C257D19121C0E7D19020EAE
:100DF0001C90637B121C257D32121C0E7D32801CE0
:100E000090637B121C257D4B121C0E7D4B800D9038
:100E1000637B121C257D64121C0E7D64120AC6E4DD
:100E20007B64FAF9F81209D390637DEEF0A3EFF03A
:100E300090637BE0FEA3E0FF121B2690637FEEF041
:100E4000A3EFF090637DE0FEA3E0FF121B2690630A
:100E500081EEF0A3EFF090637FE0FFA3E090637773
:100E6000CFF0A3EFF0906381E0FFA3E0906379CF30
:100E7000F0A3EFF0121C2D122186121C3612218FC6
:010E8000224F
:101C6D00121C2DD3121C574010906378E004F070B5
:101C7D0017906377E004F0800F121C2DC3121C57D0
:101C8D005006906378121C3F121C36D3121C624012
:101C9D001090637AE004F07017906379E004F0809F
:101CAD000F121C36C3121C62500690637A121C4B25
:0C1CBD00121C2D122186121C3602218FF1
:1010E800906385E01460381470030211982402603C
:1010F800030211DDE4906372F0906377E07002A35D
:10110800E0700A906379E07002A3E060099063855B
:101118007402F00211DD9063857401F00211DD9014
:10112800637FE0FEA3E0FFC3906378E09F9063775E
:10113800E09E500CA3E004F07006906377E004F0A2
:10114800906381E0FEA3E0FFC390637AE09F906321
:1011580079E09E500CA3E004F07006906379E004F7
:10116800F090637FE0FEA3E0FF906377E06E70038A
:10117800A3E06F7060906381E0FEA3E0FF90637965
:10118800E06E7003A3E06F704C9063857402803E3C
:10119800D3906378E09400906377E094004004A3D0
:1011A800121C3FD390637AE09400906379E0940036
:1011B8004004A3121C4B906377E07002A3E0701503
:1011C800906379E07002A3E0700B90638504F0905F
:1011D8006372E004F0906372E0C3940A4008E4F09C
:1011E800906375E0A3F0121C2D122186121C3602A2
:0211F800218F45
:101F4E00906374E004F07006906373E004F09063A5
:101F5E0076E024FE60051460188019C3906374E067
:101F6E009414906373E09400400AE4F0A3F0021C12
:041F7E006D1210E8E8
:011F8200223C
:101996000218F3E493A3F8E493A34003F68001F25C
:1019A60008DFF48029E493A3F85407240CC8C33352
:1019B600C4540F4420C8834004F456800146F6DF21
:1019C600E4800B0102040810204080900B91E47E15
:1019D600019360BCA3FF543F30E509541FFEE49316
:1019E600A360010ECF54C025E060A840B8E493A3DD
:1019F600FAE493A3F8E493A3C8C582C8CAC583CA08
:101A0600F0A3C8C582C8CAC583CADFE9DEE780BEBF
:010D1F0000D3
:1009970075F008758200EF2FFFEE33FECD33CDCC17
:1009A70033CCC58233C5829BED9AEC99E58298409A
:1009B7000CF582EE9BFEED9AFDEC99FC0FD5F0D677
:1009C700E4CEFBE4CDFAE4CCF9A88222B800C1B9A1
:1009D7000059BA002DEC8BF084CFCECDFCE5F0CBDF
:1009E700F97818EF2FFFEE33FEED33FDEC33FCEB18
:1009F70033FB10D703994004EB99FB0FD8E5E4F9D3
:100A0700FA227818EF2FFFEE33FEED33FDEC33FCBF
:100A1700C933C910D7059BE99A4007EC9BFCE99AB3
:100A2700F90FD8E0E4C9FAE4CCFB2275F010EF2FF8
:100A3700FFEE33FEED33FDCC33CCC833C810D707F8
:100A47009BEC9AE899400AED9BFDEC9AFCE899F833
:0E0A57000FD5F0DAE4CDFBE4CCFAE4C8F922C6
:100A6500EB9FF5F0EA9E42F0E99D42F0E89C45F0E7
:010A7500225E
:100A7600E8600FECC313FCED13FDEE13FEEF13FF5E
:030A8600D8F12282
:0C0A8900ECF0A3EDF0A3EEF0A3EFF022E0
:100A9500A8828583F0D083D082120AAC120AAC12E8
:100AA5000AAC120AACE473E493A3C583C5F0C5830D
:100AB500C8C582C8F0A3C583C5F0C583C8C582C8AB
:010AC500220E
:100AC600EC8EF0A4CCC5F0CCCDF8EFA4CEC5F02DBD
:100AD600FDE43CFCE8A42EC8C5F03DFDE43CFCEF7B
:0D0AE600A4FFE5F028FEE43DFDE43CFC2209
:10004E00E508242FF582E43463F583E00508229059
:10005E00632C30070390632FE475F001120B4B02F3
:10006E000AF32000E97F2ED2008018EF540F24905F
:10007E00D43440D4FF30040BEF24BFB41A00500325
:10008E002461FFE50960021509050CE50C700205F7
:10009E000B30070E90632CE475F001120B4BEF0240
:1000AE000B390221A97403D2078003E4C207F508B5
:1000BE0090632C120B62E4F509F50BF50CE5096063
:1000CE00077F2012009180F5750AFFC201C200C29F
:1000DE0002C203C205C206C20812005DFF700D30D7
:1000EE0007057F001200A2AF0CAE0B22B4255FC233
:1000FE00D5C20412005DFF24D0B40A00501A75F068
:10010E000A780930D50508B6FF0106C6A426F620E2
:10011E00D5047002D20380D924CFB41A00EF500454
:10012E00C2E5D2040202A3D20180C6D20080C0D2A0
:10013E000280BCD2D580BAD20580B47F2012009145
:10014E002002077401B5090040F112004EFF1200A3
:10015E00910200CBD208D206809512004EFB1200FF
:10016E004EFA12004EF94A4B700679747A037BFFF1
:10017E0020022EE509602A7E008E82758300120B06
:10018E000C60060EEE650A70F0C2D5EBC0E0EAC058
:10019E00E0E9C0E0EE1202EAD0E0F9D0E0FAD0E0F9
:1001AE00FB120AF3FF60AAEBC0E0EAC0E0E9C0E090
:1001BE00120091D0E02401F9D0E03400FAD0E0FB37
:1001CE00E50A0460DCD50AD980877BFF7A0279E6DE
:1001DE00D202809C791080027908C206C20880087B
:1001EE00D2D5790A8004790AC2D5E50A047002F5DF
:1001FE000AE4FAFDFEFF12004EFC7B0820011312EA
:10020E00004EFD7B1030000A12004EFE12004EFF13
:10021E007B20EC3382D592D55013C3E43000069F79
:10022E00FFE49EFEE42001039DFDE49CFCE4CBF87C
:10023E00C201EC700CCFCECDCCE824F8F870F38070
:10024E0017C3EF33FFEE33FEED33FDEC33FCEB3330
:10025E00FB994002FB0FD8E9EB300105F8D0E0C462
:10026E0048B201C0E00AEC4D4E4F78207B0070C2C0
:10027E00EAB50A0040BCC0E01202ECD0F0D0E0209B
:10028E000104C4C0E0C4B201C0F012007AD0F0D5AF
:10029E00F0EB0200CB120B6B01685301E2580139EF
:1002AE004C01354201E64F01EE4401EE49014E4349
:0802BE0001F45501D84601D8F6
:1002C6004501D847039450013D2D01412E01642B71
:1002D600014523016220037D2A00FD480000015CE0
:1002E6003F3F3F00790AA2D5200314300509B91013
:1002F600020404B9080104A2D52006025001042014
:1003060002689202B509005034C0E07F203003191C
:100316007F30A20272067205500F120343C202C258
:1003260006C205C2087F30800F300503E9C0E0121F
:100336000091300503D0E0F9D0E0B509CC300517BF
:100346007F30B9100C1200917F583004077F7880F7
:1003560003B908031200913002057F2D0200917F38
:10036600202008F87F2B2006F322920280CF286EE9
:10037600756C6C2900D20112004E3001F8C201786A
:100386000930D50108F60200FD2D504349581200E8
:100396004E2403B405004001E490038F93120082BB
:0D03A600743A120082D2037509040201E2CC
:100AF300BB010689828A83E0225002E722BBFE0201
:090B0300E32289828A83E4932233
:100B0C00BB010CE58229F582E5833AF583E022509E
:100B1C0006E92582F8E622BBFE06E92582F8E222E8
:0D0B2C00E58229F582E5833AF583E4932202
:100B3900BB010689828A83F0225002F722BBFE019B
:020B4900F32295
:100B4B00F8E0FBA3A3E0F925F0F0E5821582700233
:070B5B001583E0FA38F022D7
:090B6200EBF0A3EAF0A3E9F02294
:100B6B00D083D082F8E4937012740193700DA3A319
:100B7B0093F8740193F5828883E47374029368602D
:060B8B00EFA3A3A380DF2D
:00000001FF
